{
  "transactions": [
    {
      "hash": "0x17fa6f7e5101da1b6229c69d10244fec7482917492462e811759fa39e7559e84",
      "transactionType": "CALL",
      "contractName": null,
      "contractAddress": "0x86eafb7a9621dac053990e5c8ffdcf17544531ab",
      "function": "generateRandomNumber((bytes32,(bytes32,bytes32))[],uint256,uint256)",
      "arguments": [
        "[(0x290decd9548b62a8d60345a988386fc84ba6bc95484008f6362f93160ef3e563, (0xbae07aeba83bec3bebd36f9fdbb0b2ba1800eb1c1c9fa072d31dd088373e3592, 0x270278138cefbf420bfdd8ebbdd74c1f0d3d1b9606f67d0a6e70a906dc306151)), (0xb10e2d527612073b26eecdfd717e6a320cf44b4afac2b0732d9fcbe2b7fa0cf6, (0xfa6fc87499eb4569e8efdbd3f3caa4ff9d5f78064cb2e18328d104714f1827b9, 0x179cc775f1b2231b66530e64e989444e42766050daa72e2a2da515a0b91332c8))]",
        "7196",
        "256"
      ],
      "transaction": {
        "from": "0xb68aa9e398c054da7ebaaa446292f611ca0cd52b",
        "to": "0x86eafb7a9621dac053990e5c8ffdcf17544531ab",
        "value": "0x0",
        "input": "0xa89b873e00000000000000000000000000000000000000000000000000000000000000600000000000000000000000000000000000000000000000000000000000001c1c00000000000000000000000000000000000000000000000000000000000001000000000000000000000000000000000000000000000000000000000000000002290decd9548b62a8d60345a988386fc84ba6bc95484008f6362f93160ef3e563bae07aeba83bec3bebd36f9fdbb0b2ba1800eb1c1c9fa072d31dd088373e3592270278138cefbf420bfdd8ebbdd74c1f0d3d1b9606f67d0a6e70a906dc306151b10e2d527612073b26eecdfd717e6a320cf44b4afac2b0732d9fcbe2b7fa0cf6fa6fc87499eb4569e8efdbd3f3caa4ff9d5f78064cb2e18328d104714f1827b9179cc775f1b2231b66530e64e989444e42766050daa72e2a2da515a0b91332c8",
        "nonce": "0x178",
        "chainId": "0xaa36a7"
      },
      "additionalContracts": [],
      "isFixedGasLimit": false
    }
  ],
  "receipts": [
    {
      "status": "0x1",
      "cumulativeGasUsed": "0x13dce64",
      "logs": [
        {
          "address": "0x86eafb7a9621dac053990e5c8ffdcf17544531ab",
          "topics": [
            "0x31a1adb447f9b6b89f24bf104f0b7a06975ad9f35670dbfaf7ce29190ec54762"
          ],
          "data": "0x00000000000000000000000000000000000000000000000000000000680158e00000000000000000000000000000000000000000000000000000000000000002",
          "blockHash": "0xf3eaee8f695fe81b5919a5cd1d07f2bbd8d43a500fb9c71145901c14775ee90b",
          "blockNumber": "0x7c3158",
          "transactionHash": "0x17fa6f7e5101da1b6229c69d10244fec7482917492462e811759fa39e7559e84",
          "transactionIndex": "0xb9",
          "logIndex": "0xc3",
          "removed": false
        },
        {
          "address": "0x86eafb7a9621dac053990e5c8ffdcf17544531ab",
          "topics": [
            "0x539d5cf812477a02d010f73c1704ff94bd28cfca386609a6b494561f64ee7f0a"
          ],
          "data": "0x0000000000000000000000000000000000000000000000000000000000000000891370df4fadf33f50e41f7c8a791e680c0655695ea3404385a909c8f5e13fb40000000000000000000000000000000000000000000000000000000000000001",
          "blockHash": "0xf3eaee8f695fe81b5919a5cd1d07f2bbd8d43a500fb9c71145901c14775ee90b",
          "blockNumber": "0x7c3158",
          "transactionHash": "0x17fa6f7e5101da1b6229c69d10244fec7482917492462e811759fa39e7559e84",
          "transactionIndex": "0xb9",
          "logIndex": "0xc4",
          "removed": false
        }
      ],
      "logsBloom": "0x00000000000000000000000000000000000000000000000000004000000040000000000000000000000000000000000000008000000000000000000000000000000000000000000000000000000000000000000000000000000000000000000000000000000001000000000000000000000000000000000000000000000000000000000000000000000000000000000000000008000000000000000000000000000000000000000000000000000000000000000000000000000000000000000000000000000000000000000000000000000000000000000200000000000000000000000000000000000000000000000000000000000000000001000008002000",
      "type": "0x2",
      "transactionHash": "0x17fa6f7e5101da1b6229c69d10244fec7482917492462e811759fa39e7559e84",
      "transactionIndex": "0xb9",
      "blockHash": "0xf3eaee8f695fe81b5919a5cd1d07f2bbd8d43a500fb9c71145901c14775ee90b",
      "blockNumber": "0x7c3158",
      "gasUsed": "0x1fa14",
      "effectiveGasPrice": "0x166f02",
      "from": "0xb68aa9e398c054da7ebaaa446292f611ca0cd52b",
      "to": "0x86eafb7a9621dac053990e5c8ffdcf17544531ab",
      "contractAddress": null
    }
  ],
  "libraries": [],
  "pending": [],
  "returns": {},
  "timestamp": 1744919029,
  "chain": 11155111,
  "commit": "5bd073c"
}