{
  "transactions": [
    {
      "hash": "0x8491a82be33a872182eaecbaa09cd0e9ab4e0a0aa9d9c30e35e34e0835ee1c37",
      "transactionType": "CALL",
      "contractName": null,
      "contractAddress": "0xbeebbd0e8ac4535a9d5eab88d845f1082d62fc25",
      "function": "generateRandomNumber(bytes32[],uint8[],bytes32[],bytes32[],uint256[])",
      "arguments": [
        "[0x290decd9548b62a8d60345a988386fc84ba6bc95484008f6362f93160ef3e563, 0xb10e2d527612073b26eecdfd717e6a320cf44b4afac2b0732d9fcbe2b7fa0cf6]",
        "[27, 28]",
        "[0x798b2a680e0bdfcd59b71a5424dca798193587cf1bd4e8f8f3b235d0f444c204, 0xda2ad1234412a762cb9435609eeada5886a408d896a0291b8515c4028a6d7004]",
        "[0x25b0de85f745cbded4571f4e593cbd48aa04e1d2ab18321b40b492f56f0ff5a8, 0x50947c20fcc32d8026e0abfb1d32444b81c5d20d483aa61e48f42bdb4b739c20]",
        "[0, 1]"
      ],
      "transaction": {
        "from": "0xb68aa9e398c054da7ebaaa446292f611ca0cd52b",
        "to": "0xbeebbd0e8ac4535a9d5eab88d845f1082d62fc25",
        "value": "0x0",
        "input": "0x683f2be100000000000000000000000000000000000000000000000000000000000000a00000000000000000000000000000000000000000000000000000000000000100000000000000000000000000000000000000000000000000000000000000016000000000000000000000000000000000000000000000000000000000000001c000000000000000000000000000000000000000000000000000000000000002200000000000000000000000000000000000000000000000000000000000000002290decd9548b62a8d60345a988386fc84ba6bc95484008f6362f93160ef3e563b10e2d527612073b26eecdfd717e6a320cf44b4afac2b0732d9fcbe2b7fa0cf60000000000000000000000000000000000000000000000000000000000000002000000000000000000000000000000000000000000000000000000000000001b000000000000000000000000000000000000000000000000000000000000001c0000000000000000000000000000000000000000000000000000000000000002798b2a680e0bdfcd59b71a5424dca798193587cf1bd4e8f8f3b235d0f444c204da2ad1234412a762cb9435609eeada5886a408d896a0291b8515c4028a6d7004000000000000000000000000000000000000000000000000000000000000000225b0de85f745cbded4571f4e593cbd48aa04e1d2ab18321b40b492f56f0ff5a850947c20fcc32d8026e0abfb1d32444b81c5d20d483aa61e48f42bdb4b739c20000000000000000000000000000000000000000000000000000000000000000200000000000000000000000000000000000000000000000000000000000000000000000000000000000000000000000000000000000000000000000000000001",
        "nonce": "0x16c",
        "chainId": "0xaa36a7"
      },
      "additionalContracts": [],
      "isFixedGasLimit": false
    }
  ],
  "receipts": [
    {
      "status": "0x1",
      "cumulativeGasUsed": "0xd1af86",
      "logs": [
        {
          "address": "0xbeebbd0e8ac4535a9d5eab88d845f1082d62fc25",
          "topics": [
            "0xe2af5431d45f111f112df909784bcdd0cf9a409671adeaf0964cc234a98297fe"
          ],
          "data": "0x0000000000000000000000000000000000000000000000000000000067e23d300000000000000000000000000000000000000000000000000000000000000002",
          "blockHash": "0x77f1dd5f4f5e6e56c55b9f0f627913bacaff5995fc46dfc682fe79557a70f603",
          "blockNumber": "0x79b476",
          "transactionHash": "0x8491a82be33a872182eaecbaa09cd0e9ab4e0a0aa9d9c30e35e34e0835ee1c37",
          "transactionIndex": "0x7c",
          "logIndex": "0xcc",
          "removed": false
        },
        {
          "address": "0xbeebbd0e8ac4535a9d5eab88d845f1082d62fc25",
          "topics": [
            "0x539d5cf812477a02d010f73c1704ff94bd28cfca386609a6b494561f64ee7f0a"
          ],
          "data": "0x0000000000000000000000000000000000000000000000000000000000000001891370df4fadf33f50e41f7c8a791e680c0655695ea3404385a909c8f5e13fb40000000000000000000000000000000000000000000000000000000000000001",
          "blockHash": "0x77f1dd5f4f5e6e56c55b9f0f627913bacaff5995fc46dfc682fe79557a70f603",
          "blockNumber": "0x79b476",
          "transactionHash": "0x8491a82be33a872182eaecbaa09cd0e9ab4e0a0aa9d9c30e35e34e0835ee1c37",
          "transactionIndex": "0x7c",
          "logIndex": "0xcd",
          "removed": false
        }
      ],
      "logsBloom": "0x00000000000000100000000000000000000000000000000000004000000000000000000000000000000000000000000020000000000000000000000000000000000000000000000000000000000000000400000000000000000000000000000000000000000001000000000000000000000000000000000000000000000000000000000000000000000000000000000000000000000000000000000000000000400000000000000000000000000000000000000040000000000000000000000000000000000000000000000000000000000000000000000200000000000000000000000000004000000000000000000000000000000000000000000000000000",
      "type": "0x2",
      "transactionHash": "0x8491a82be33a872182eaecbaa09cd0e9ab4e0a0aa9d9c30e35e34e0835ee1c37",
      "transactionIndex": "0x7c",
      "blockHash": "0x77f1dd5f4f5e6e56c55b9f0f627913bacaff5995fc46dfc682fe79557a70f603",
      "blockNumber": "0x79b476",
      "gasUsed": "0x25c74",
      "effectiveGasPrice": "0x3b27a5",
      "from": "0xb68aa9e398c054da7ebaaa446292f611ca0cd52b",
      "to": "0xbeebbd0e8ac4535a9d5eab88d845f1082d62fc25",
      "contractAddress": null
    }
  ],
  "libraries": [],
  "pending": [],
  "returns": {},
  "timestamp": 1742880085,
  "chain": 11155111,
  "commit": "73a201e"
}