{
  "transactions": [
    {
      "hash": "0x8df4b9661243f6824ffed163435a7b9ce1562b60ffc7bbd25b05d91fcc3c6e22",
      "transactionType": "CALL",
      "contractName": "CommitReveal2L1",
      "contractAddress": "0x371486842691a4ff43cb0aeb445511e28c71680f",
      "function": "generateRandomNumber((bytes32,(bytes32,bytes32))[],uint256,uint256)",
      "arguments": [
        "[(0x290decd9548b62a8d60345a988386fc84ba6bc95484008f6362f93160ef3e563, (0x9e25d38696c652e52e1eb30ea8d5a59a6495a8d76168837220e64749bfe0206f, 0x05f7f0e56fe198de890b55f8479d419d1dc29667fc3677dba3c26bb6949ffda3)), (0xb10e2d527612073b26eecdfd717e6a320cf44b4afac2b0732d9fcbe2b7fa0cf6, (0x41827d505664073ea4ed258dd6ff3fdd553f7b8c039123ab3f398c38d46c7cb2, 0x69a3f42f8a182dd9786f7a28959d4c0c10796e43e7e11912783247337936aa31))]",
        "6940",
        "256"
      ],
      "transaction": {
        "from": "0xb68aa9e398c054da7ebaaa446292f611ca0cd52b",
        "to": "0x371486842691a4ff43cb0aeb445511e28c71680f",
        "value": "0x0",
        "input": "0xa89b873e00000000000000000000000000000000000000000000000000000000000000600000000000000000000000000000000000000000000000000000000000001b1c00000000000000000000000000000000000000000000000000000000000001000000000000000000000000000000000000000000000000000000000000000002290decd9548b62a8d60345a988386fc84ba6bc95484008f6362f93160ef3e5639e25d38696c652e52e1eb30ea8d5a59a6495a8d76168837220e64749bfe0206f05f7f0e56fe198de890b55f8479d419d1dc29667fc3677dba3c26bb6949ffda3b10e2d527612073b26eecdfd717e6a320cf44b4afac2b0732d9fcbe2b7fa0cf641827d505664073ea4ed258dd6ff3fdd553f7b8c039123ab3f398c38d46c7cb269a3f42f8a182dd9786f7a28959d4c0c10796e43e7e11912783247337936aa31",
        "nonce": "0x17d",
        "chainId": "0xaa36a7"
      },
      "additionalContracts": [],
      "isFixedGasLimit": false
    }
  ],
  "receipts": [
    {
      "status": "0x1",
      "cumulativeGasUsed": "0xc9f098",
      "logs": [
        {
          "address": "0x371486842691a4ff43cb0aeb445511e28c71680f",
          "topics": [
            "0x31a1adb447f9b6b89f24bf104f0b7a06975ad9f35670dbfaf7ce29190ec54762"
          ],
          "data": "0x0000000000000000000000000000000000000000000000000000000068069a240000000000000000000000000000000000000000000000000000000000000002",
          "blockHash": "0x130a6e32e728de03ffb77323bd70d48991f78b2b6d8a5b088f443fdc9622d712",
          "blockNumber": "0x7ca031",
          "transactionHash": "0x8df4b9661243f6824ffed163435a7b9ce1562b60ffc7bbd25b05d91fcc3c6e22",
          "transactionIndex": "0x6c",
          "logIndex": "0xab",
          "removed": false
        },
        {
          "address": "0x371486842691a4ff43cb0aeb445511e28c71680f",
          "topics": [
            "0x539d5cf812477a02d010f73c1704ff94bd28cfca386609a6b494561f64ee7f0a"
          ],
          "data": "0x0000000000000000000000000000000000000000000000000000000000000000891370df4fadf33f50e41f7c8a791e680c0655695ea3404385a909c8f5e13fb40000000000000000000000000000000000000000000000000000000000000001",
          "blockHash": "0x130a6e32e728de03ffb77323bd70d48991f78b2b6d8a5b088f443fdc9622d712",
          "blockNumber": "0x7ca031",
          "transactionHash": "0x8df4b9661243f6824ffed163435a7b9ce1562b60ffc7bbd25b05d91fcc3c6e22",
          "transactionIndex": "0x6c",
          "logIndex": "0xac",
          "removed": false
        }
      ],
      "logsBloom": "0x00000000000000000000000000000000000000000000000000004000000000000000000000000000000000000000000000000000000000000000000000000000000000000000000000000000000000000000000000000000000000000000000000000000000001000000000000000000000000000000000000000000000000000000000000000000000000000000000000000008000000000000000800000000000000000000000000000200000200000000000000000000000000000000000000000000000000000000000000000000000000000000000200000000000000000000000000000000000000000000000000000000000000000001000008000000",
      "type": "0x2",
      "transactionHash": "0x8df4b9661243f6824ffed163435a7b9ce1562b60ffc7bbd25b05d91fcc3c6e22",
      "transactionIndex": "0x6c",
      "blockHash": "0x130a6e32e728de03ffb77323bd70d48991f78b2b6d8a5b088f443fdc9622d712",
      "blockNumber": "0x7ca031",
      "gasUsed": "0x1fa20",
      "effectiveGasPrice": "0x71a193",
      "from": "0xb68aa9e398c054da7ebaaa446292f611ca0cd52b",
      "to": "0x371486842691a4ff43cb0aeb445511e28c71680f",
      "contractAddress": null
    }
  ],
  "libraries": [],
  "pending": [],
  "returns": {},
  "timestamp": 1745263179,
  "chain": 11155111,
  "commit": "ca1fb0e"
}