{
  "transactions": [
    {
      "hash": "0xd3b40dae43697bcc538afb650b7a2a7e37006a999a65595daa4780dca4944807",
      "transactionType": "CALL",
      "contractName": null,
      "contractAddress": "0xa6051c6ead0979ba1bd5cdaff73a1ff0a08c019f",
      "function": "requestRandomNumber()",
      "arguments": [],
      "transaction": {
        "from": "0xb68aa9e398c054da7ebaaa446292f611ca0cd52b",
        "to": "0xa6051c6ead0979ba1bd5cdaff73a1ff0a08c019f",
        "value": "0x38dcb2b5f849a",
        "input": "0x8678a7b2",
        "nonce": "0x161",
        "chainId": "0xaa36a7"
      },
      "additionalContracts": [],
      "isFixedGasLimit": false
    },
    {
      "hash": "0xda988d3ee6e032ac5f987c1ee09a201f452a37428e43bf5bbb25de00c8eb86c6",
      "transactionType": "CALL",
      "contractName": null,
      "contractAddress": "0xa87c2de14fc3f91e9e53854f3707b5e86cf7c3f7",
      "function": "submitMerkleRoot(bytes32)",
      "arguments": [
        "0x8f390c511e75331a65baeb2d17b4b1af4dbc977650c8ed2774dfa6e0575dc0c8"
      ],
      "transaction": {
        "from": "0xb68aa9e398c054da7ebaaa446292f611ca0cd52b",
        "to": "0xa87c2de14fc3f91e9e53854f3707b5e86cf7c3f7",
        "value": "0x0",
        "input": "0xcda5de838f390c511e75331a65baeb2d17b4b1af4dbc977650c8ed2774dfa6e0575dc0c8",
        "nonce": "0x162",
        "chainId": "0xaa36a7"
      },
      "additionalContracts": [],
      "isFixedGasLimit": false
    }
  ],
  "receipts": [
    {
      "status": "0x1",
      "cumulativeGasUsed": "0xd0135f",
      "logs": [
        {
          "address": "0xa87c2de14fc3f91e9e53854f3707b5e86cf7c3f7",
          "topics": [
            "0xe2af5431d45f111f112df909784bcdd0cf9a409671adeaf0964cc234a98297fe"
          ],
          "data": "0x0000000000000000000000000000000000000000000000000000000067e23a240000000000000000000000000000000000000000000000000000000067e23a24",
          "blockHash": "0x56d1e934db3d73fc4e6fd8b621c27a2cf10b35bc737ec6937d1672b3e055b16a",
          "blockNumber": "0x79b432",
          "transactionHash": "0xd3b40dae43697bcc538afb650b7a2a7e37006a999a65595daa4780dca4944807",
          "transactionIndex": "0x77",
          "logIndex": "0xbd",
          "removed": false
        }
      ],
      "logsBloom": "0x00000000000000100000000000000000000000000000000000000000000000000000000000000000000000000000000000000000000000000000000000000000000000000000000000000000000000000000000000000000000000000000000000000000000000000080000000000000000000000000000000000000000000000000000000000000000000000000000000000000000000000000000000000000400000000000000000000000000000000000000040000000000000000000000000000000000000000000000000000000000000000000000800000000000000000000000000000000000000000000000000000000000000040000000000000000",
      "type": "0x2",
      "transactionHash": "0xd3b40dae43697bcc538afb650b7a2a7e37006a999a65595daa4780dca4944807",
      "transactionIndex": "0x77",
      "blockHash": "0x56d1e934db3d73fc4e6fd8b621c27a2cf10b35bc737ec6937d1672b3e055b16a",
      "blockNumber": "0x79b432",
      "gasUsed": "0x33a19",
      "effectiveGasPrice": "0x3bd30d",
      "from": "0xb68aa9e398c054da7ebaaa446292f611ca0cd52b",
      "to": "0xa6051c6ead0979ba1bd5cdaff73a1ff0a08c019f",
      "contractAddress": null
    },
    {
      "status": "0x1",
      "cumulativeGasUsed": "0x1ef684f",
      "logs": [
        {
          "address": "0xa87c2de14fc3f91e9e53854f3707b5e86cf7c3f7",
          "topics": [
            "0xb3a8f3e59050d3f97f1bf1b668c8216c654869aa24e3e03cd8891dc68b7db097"
          ],
          "data": "0x0000000000000000000000000000000000000000000000000000000067e23a248f390c511e75331a65baeb2d17b4b1af4dbc977650c8ed2774dfa6e0575dc0c8",
          "blockHash": "0x3a4cdad6d41bf094d077574152e5dfdbf13c1197b7b04adf248b1acdc3dc1b6b",
          "blockNumber": "0x79b433",
          "transactionHash": "0xda988d3ee6e032ac5f987c1ee09a201f452a37428e43bf5bbb25de00c8eb86c6",
          "transactionIndex": "0x71",
          "logIndex": "0x2b0",
          "removed": false
        }
      ],
      "logsBloom": "0x00000000000000000000000000000000000000000000000000000000000000000000000000000000000000000000000000000000000000000000000000000000000000000000000000000000000000000000000000000000000000000000000000000000000000000080000000000000000000000000000000000000000000000000000000000000000000000000000000000000000000000000000000000000000000000000000000002000000000000000000000000000000000000000020000000000000000000000000000000000000000000000000800000000000000000000000000000000000000000000002000000000000000040000000000000000",
      "type": "0x2",
      "transactionHash": "0xda988d3ee6e032ac5f987c1ee09a201f452a37428e43bf5bbb25de00c8eb86c6",
      "transactionIndex": "0x71",
      "blockHash": "0x3a4cdad6d41bf094d077574152e5dfdbf13c1197b7b04adf248b1acdc3dc1b6b",
      "blockNumber": "0x79b433",
      "gasUsed": "0x18c09",
      "effectiveGasPrice": "0x3ac212",
      "from": "0xb68aa9e398c054da7ebaaa446292f611ca0cd52b",
      "to": "0xa87c2de14fc3f91e9e53854f3707b5e86cf7c3f7",
      "contractAddress": null
    }
  ],
  "libraries": [],
  "pending": [],
  "returns": {},
  "timestamp": 1742879281,
  "chain": 11155111,
  "commit": "73a201e"
}