{
  "transactions": [
    {
      "hash": "0x601d7245ed62bf32d3f5aaf7ddaffcd3521c2ced524e66c6a78fbe47da9f98f1",
      "transactionType": "CALL",
      "contractName": null,
      "contractAddress": "0xa87c2de14fc3f91e9e53854f3707b5e86cf7c3f7",
      "function": "generateRandomNumber(bytes32[],uint8[],bytes32[],bytes32[],uint256[])",
      "arguments": [
        "[0x290decd9548b62a8d60345a988386fc84ba6bc95484008f6362f93160ef3e563, 0xb10e2d527612073b26eecdfd717e6a320cf44b4afac2b0732d9fcbe2b7fa0cf6]",
        "[27, 28]",
        "[0x61c550aacad570455ec6a58e481f42fd3ecceb2d06e9f690c2ab42db74634cc5, 0x831c3d0613bee654ebc33692ff00e09a98ca7513241bd51560d7519fb3a6118b]",
        "[0x2d128757ecc3e50a18f05e4803338235085351d6e9f747a401d2667fc27cbd51, 0x09e9819236a49047f5a4ed4f6f23d47237d9d27648d20f79db529ac75271685e]",
        "[0, 1]"
      ],
      "transaction": {
        "from": "0xb68aa9e398c054da7ebaaa446292f611ca0cd52b",
        "to": "0xa87c2de14fc3f91e9e53854f3707b5e86cf7c3f7",
        "value": "0x0",
        "input": "0x683f2be100000000000000000000000000000000000000000000000000000000000000a00000000000000000000000000000000000000000000000000000000000000100000000000000000000000000000000000000000000000000000000000000016000000000000000000000000000000000000000000000000000000000000001c000000000000000000000000000000000000000000000000000000000000002200000000000000000000000000000000000000000000000000000000000000002290decd9548b62a8d60345a988386fc84ba6bc95484008f6362f93160ef3e563b10e2d527612073b26eecdfd717e6a320cf44b4afac2b0732d9fcbe2b7fa0cf60000000000000000000000000000000000000000000000000000000000000002000000000000000000000000000000000000000000000000000000000000001b000000000000000000000000000000000000000000000000000000000000001c000000000000000000000000000000000000000000000000000000000000000261c550aacad570455ec6a58e481f42fd3ecceb2d06e9f690c2ab42db74634cc5831c3d0613bee654ebc33692ff00e09a98ca7513241bd51560d7519fb3a6118b00000000000000000000000000000000000000000000000000000000000000022d128757ecc3e50a18f05e4803338235085351d6e9f747a401d2667fc27cbd5109e9819236a49047f5a4ed4f6f23d47237d9d27648d20f79db529ac75271685e000000000000000000000000000000000000000000000000000000000000000200000000000000000000000000000000000000000000000000000000000000000000000000000000000000000000000000000000000000000000000000000001",
        "nonce": "0x163",
        "chainId": "0xaa36a7"
      },
      "additionalContracts": [],
      "isFixedGasLimit": false
    }
  ],
  "receipts": [
    {
      "status": "0x1",
      "cumulativeGasUsed": "0xc5c6b2",
      "logs": [
        {
          "address": "0xa87c2de14fc3f91e9e53854f3707b5e86cf7c3f7",
          "topics": [
            "0xe2af5431d45f111f112df909784bcdd0cf9a409671adeaf0964cc234a98297fe"
          ],
          "data": "0x0000000000000000000000000000000000000000000000000000000067e23a240000000000000000000000000000000000000000000000000000000000000002",
          "blockHash": "0xfbe5e281ba34da8a22f38d4951d9dba13d103422f90d3a5a4e9242bcf8d88add",
          "blockNumber": "0x79b435",
          "transactionHash": "0x601d7245ed62bf32d3f5aaf7ddaffcd3521c2ced524e66c6a78fbe47da9f98f1",
          "transactionIndex": "0x79",
          "logIndex": "0xed",
          "removed": false
        },
        {
          "address": "0xa87c2de14fc3f91e9e53854f3707b5e86cf7c3f7",
          "topics": [
            "0x539d5cf812477a02d010f73c1704ff94bd28cfca386609a6b494561f64ee7f0a"
          ],
          "data": "0x0000000000000000000000000000000000000000000000000000000000000000891370df4fadf33f50e41f7c8a791e680c0655695ea3404385a909c8f5e13fb40000000000000000000000000000000000000000000000000000000000000001",
          "blockHash": "0xfbe5e281ba34da8a22f38d4951d9dba13d103422f90d3a5a4e9242bcf8d88add",
          "blockNumber": "0x79b435",
          "transactionHash": "0x601d7245ed62bf32d3f5aaf7ddaffcd3521c2ced524e66c6a78fbe47da9f98f1",
          "transactionIndex": "0x79",
          "logIndex": "0xee",
          "removed": false
        }
      ],
      "logsBloom": "0x00000000000000100000000000000000000000000000000000004000000000000000000000000000000000000000000000000000000000000000000000000000000000000000000000000000000000000000000000000000000000000000000000000000000001000080000000000000000000000000000000000000000000000000000000000000000000000000000000000000000000000000000000000000400000000000000000000000000000000000000040000000000000000000000000000000000000000000000000000000000000000000000a00000000000000000000000000000000000000000000000000000000000000040000000000000000",
      "type": "0x2",
      "transactionHash": "0x601d7245ed62bf32d3f5aaf7ddaffcd3521c2ced524e66c6a78fbe47da9f98f1",
      "transactionIndex": "0x79",
      "blockHash": "0xfbe5e281ba34da8a22f38d4951d9dba13d103422f90d3a5a4e9242bcf8d88add",
      "blockNumber": "0x79b435",
      "gasUsed": "0x20eac",
      "effectiveGasPrice": "0x44070f",
      "from": "0xb68aa9e398c054da7ebaaa446292f611ca0cd52b",
      "to": "0xa87c2de14fc3f91e9e53854f3707b5e86cf7c3f7",
      "contractAddress": null
    }
  ],
  "libraries": [],
  "pending": [],
  "returns": {},
  "timestamp": 1742879305,
  "chain": 11155111,
  "commit": "73a201e"
}