{
  "transactions": [
    {
      "hash": "0x64e9f44b128ea49d78f61357362c4093116762507ca05649da29ee77e243cf7b",
      "transactionType": "CALL",
      "contractName": "CommitReveal2L1",
      "contractAddress": "0x6a43b35fd749b96868c0db6a0101e87d5ddf764c",
      "function": "generateRandomNumber(bytes32[],uint8[],bytes32[],bytes32[],uint256[])",
      "arguments": [
        "[0x290decd9548b62a8d60345a988386fc84ba6bc95484008f6362f93160ef3e563, 0xb10e2d527612073b26eecdfd717e6a320cf44b4afac2b0732d9fcbe2b7fa0cf6]",
        "[28, 28]",
        "[0x91eb04c5bb95b22feb12b1f57ff3682e0d4d3a7c6fd7ebe0606b8c1ce49550d7, 0xbf49149d6d8b0b124dedaeeafd2ba922bcf3b597f5c5c545c5e95003b141be9a]",
        "[0x550d3c7853779e99fb85dcc3dcf481b3747360d5acef12b87ca86c7f45f7e44b, 0x7752d9b80759adcd0b50b39f6aa8f64674e31ad2ad3a24edf314099a84577609]",
        "[0, 1]"
      ],
      "transaction": {
        "from": "0xb68aa9e398c054da7ebaaa446292f611ca0cd52b",
        "to": "0x6a43b35fd749b96868c0db6a0101e87d5ddf764c",
        "value": "0x0",
        "input": "0x683f2be100000000000000000000000000000000000000000000000000000000000000a00000000000000000000000000000000000000000000000000000000000000100000000000000000000000000000000000000000000000000000000000000016000000000000000000000000000000000000000000000000000000000000001c000000000000000000000000000000000000000000000000000000000000002200000000000000000000000000000000000000000000000000000000000000002290decd9548b62a8d60345a988386fc84ba6bc95484008f6362f93160ef3e563b10e2d527612073b26eecdfd717e6a320cf44b4afac2b0732d9fcbe2b7fa0cf60000000000000000000000000000000000000000000000000000000000000002000000000000000000000000000000000000000000000000000000000000001c000000000000000000000000000000000000000000000000000000000000001c000000000000000000000000000000000000000000000000000000000000000291eb04c5bb95b22feb12b1f57ff3682e0d4d3a7c6fd7ebe0606b8c1ce49550d7bf49149d6d8b0b124dedaeeafd2ba922bcf3b597f5c5c545c5e95003b141be9a0000000000000000000000000000000000000000000000000000000000000002550d3c7853779e99fb85dcc3dcf481b3747360d5acef12b87ca86c7f45f7e44b7752d9b80759adcd0b50b39f6aa8f64674e31ad2ad3a24edf314099a84577609000000000000000000000000000000000000000000000000000000000000000200000000000000000000000000000000000000000000000000000000000000000000000000000000000000000000000000000000000000000000000000000001",
        "nonce": "0x158",
        "chainId": "0xaa36a7"
      },
      "additionalContracts": [],
      "isFixedGasLimit": false
    }
  ],
  "receipts": [
    {
      "status": "0x1",
      "cumulativeGasUsed": "0xbb71af",
      "logs": [
        {
          "address": "0x6a43b35fd749b96868c0db6a0101e87d5ddf764c",
          "topics": [
            "0x17e36cf3a793ac6f5c5a4f4902aae8748c5c29bf36f9f66870d1728c40bb562a"
          ],
          "data": "0x0000000000000000000000000000000000000000000000000000000000000002",
          "blockHash": "0x0a852d58c65d8a7b6a01f156d3627851050a00334dfc4756e9692e5c0ef7ef0a",
          "blockNumber": "0x799d16",
          "transactionHash": "0x64e9f44b128ea49d78f61357362c4093116762507ca05649da29ee77e243cf7b",
          "transactionIndex": "0x60",
          "logIndex": "0x9a",
          "removed": false
        },
        {
          "address": "0x6a43b35fd749b96868c0db6a0101e87d5ddf764c",
          "topics": [
            "0x539d5cf812477a02d010f73c1704ff94bd28cfca386609a6b494561f64ee7f0a"
          ],
          "data": "0x0000000000000000000000000000000000000000000000000000000000000001891370df4fadf33f50e41f7c8a791e680c0655695ea3404385a909c8f5e13fb40000000000000000000000000000000000000000000000000000000000000001",
          "blockHash": "0x0a852d58c65d8a7b6a01f156d3627851050a00334dfc4756e9692e5c0ef7ef0a",
          "blockNumber": "0x799d16",
          "transactionHash": "0x64e9f44b128ea49d78f61357362c4093116762507ca05649da29ee77e243cf7b",
          "transactionIndex": "0x60",
          "logIndex": "0x9b",
          "removed": false
        }
      ],
      "logsBloom": "0x00000000000000000000000002400000000000000000001000004000000000000000000000000000000000000000000000000000000000000000000000000000000000000000000000000010000000000000000000000000000000000000000000000000000001000000000000000000000000000000000000000000000000000000000000000000000000000000000000000000000000000000000000000100000000000000000000000000000000000000000000000000000000000000000000000000000000000000000000000000000000000000000240000000000000000000000000000000000000000000000000000000000000000000000000000000",
      "type": "0x2",
      "transactionHash": "0x64e9f44b128ea49d78f61357362c4093116762507ca05649da29ee77e243cf7b",
      "transactionIndex": "0x60",
      "blockHash": "0x0a852d58c65d8a7b6a01f156d3627851050a00334dfc4756e9692e5c0ef7ef0a",
      "blockNumber": "0x799d16",
      "gasUsed": "0x26952",
      "effectiveGasPrice": "0x59cbf7",
      "from": "0xb68aa9e398c054da7ebaaa446292f611ca0cd52b",
      "to": "0x6a43b35fd749b96868c0db6a0101e87d5ddf764c",
      "contractAddress": null
    }
  ],
  "libraries": [],
  "pending": [],
  "returns": {},
  "timestamp": 1742808205,
  "chain": 11155111,
  "commit": "558945a"
}