{
  "transactions": [
    {
      "hash": "0xeea695e2318da2c19f5475ecaa8f272763c6bb544ee03c8939f662c7c519fb22",
      "transactionType": "CALL",
      "contractName": "ConsumerExample",
      "contractAddress": "0xdd20862706da5c6eea053976f3a8c49e00f1092b",
      "function": "requestRandomNumber()",
      "arguments": [],
      "transaction": {
        "from": "0xb68aa9e398c054da7ebaaa446292f611ca0cd52b",
        "to": "0xdd20862706da5c6eea053976f3a8c49e00f1092b",
        "value": "0x38de5141c4054",
        "input": "0x8678a7b2",
        "nonce": "0x156",
        "chainId": "0xaa36a7"
      },
      "additionalContracts": [],
      "isFixedGasLimit": false
    },
    {
      "hash": "0xd53837517a2de495f93124f72d90afcdd87701e2b36c73c1cde864c739f43093",
      "transactionType": "CALL",
      "contractName": "CommitReveal2L1",
      "contractAddress": "0x6a43b35fd749b96868c0db6a0101e87d5ddf764c",
      "function": "submitMerkleRoot(bytes32)",
      "arguments": [
        "0x8f390c511e75331a65baeb2d17b4b1af4dbc977650c8ed2774dfa6e0575dc0c8"
      ],
      "transaction": {
        "from": "0xb68aa9e398c054da7ebaaa446292f611ca0cd52b",
        "to": "0x6a43b35fd749b96868c0db6a0101e87d5ddf764c",
        "value": "0x0",
        "input": "0xcda5de838f390c511e75331a65baeb2d17b4b1af4dbc977650c8ed2774dfa6e0575dc0c8",
        "nonce": "0x157",
        "chainId": "0xaa36a7"
      },
      "additionalContracts": [],
      "isFixedGasLimit": false
    },
    {
      "hash": null,
      "transactionType": "CALL",
      "contractName": "CommitReveal2L1",
      "contractAddress": "0x6a43b35fd749b96868c0db6a0101e87d5ddf764c",
      "function": "generateRandomNumber(bytes32[],uint8[],bytes32[],bytes32[],uint256[])",
      "arguments": [
        "[0x290decd9548b62a8d60345a988386fc84ba6bc95484008f6362f93160ef3e563, 0xb10e2d527612073b26eecdfd717e6a320cf44b4afac2b0732d9fcbe2b7fa0cf6]",
        "[28, 27]",
        "[0xfb567ee3fb0551cb7efa5ebe71460a9ff63ee5677fca4dbfd3b269aed76f84fd, 0x1824e75fccf7bc0699fa4fa12fb6df52060169608bc68a6c01b393cc88a3206b]",
        "[0x10c00cf3c9c4b04719ee6d4ed0c31f4f5940bf7a0ea597c04f1417011c976947, 0x66e2698dafed02c7f789627679e2413014b029d1a275511465504ecff4f2b319]",
        "[0, 1]"
      ],
      "transaction": {
        "from": "0xb68aa9e398c054da7ebaaa446292f611ca0cd52b",
        "to": "0x6a43b35fd749b96868c0db6a0101e87d5ddf764c",
        "value": "0x0",
        "input": "0x683f2be100000000000000000000000000000000000000000000000000000000000000a00000000000000000000000000000000000000000000000000000000000000100000000000000000000000000000000000000000000000000000000000000016000000000000000000000000000000000000000000000000000000000000001c000000000000000000000000000000000000000000000000000000000000002200000000000000000000000000000000000000000000000000000000000000002290decd9548b62a8d60345a988386fc84ba6bc95484008f6362f93160ef3e563b10e2d527612073b26eecdfd717e6a320cf44b4afac2b0732d9fcbe2b7fa0cf60000000000000000000000000000000000000000000000000000000000000002000000000000000000000000000000000000000000000000000000000000001c000000000000000000000000000000000000000000000000000000000000001b0000000000000000000000000000000000000000000000000000000000000002fb567ee3fb0551cb7efa5ebe71460a9ff63ee5677fca4dbfd3b269aed76f84fd1824e75fccf7bc0699fa4fa12fb6df52060169608bc68a6c01b393cc88a3206b000000000000000000000000000000000000000000000000000000000000000210c00cf3c9c4b04719ee6d4ed0c31f4f5940bf7a0ea597c04f1417011c97694766e2698dafed02c7f789627679e2413014b029d1a275511465504ecff4f2b319000000000000000000000000000000000000000000000000000000000000000200000000000000000000000000000000000000000000000000000000000000000000000000000000000000000000000000000000000000000000000000000001",
        "nonce": "0x158",
        "chainId": "0xaa36a7"
      },
      "additionalContracts": [],
      "isFixedGasLimit": false
    }
  ],
  "receipts": [
    {
      "status": "0x1",
      "cumulativeGasUsed": "0x123929c",
      "logs": [
        {
          "address": "0x6a43b35fd749b96868c0db6a0101e87d5ddf764c",
          "topics": [
            "0x17e36cf3a793ac6f5c5a4f4902aae8748c5c29bf36f9f66870d1728c40bb562a"
          ],
          "data": "0x0000000000000000000000000000000000000000000000000000000000000001",
          "blockHash": "0x8669be4ae5e5873da101d1669e02533d82cf736d816b49a4c70c0194aeb07ddd",
          "blockNumber": "0x799d10",
          "transactionHash": "0xeea695e2318da2c19f5475ecaa8f272763c6bb544ee03c8939f662c7c519fb22",
          "transactionIndex": "0x88",
          "logIndex": "0x131",
          "removed": false
        },
        {
          "address": "0x6a43b35fd749b96868c0db6a0101e87d5ddf764c",
          "topics": [
            "0x2195ca2caa394fd192f7f17a47139d963938464c7ad99010b12ef0218c2f0838"
          ],
          "data": "0x00000000000000000000000000000000000000000000000000000000000000010000000000000000000000000000000000000000000000000000000067e1244400000000000000000000000000000000000000000000000000000000000000600000000000000000000000000000000000000000000000000000000000000002000000000000000000000000e49c9ea00337182374e112c452247a2d1db617980000000000000000000000009a3ce2fe861e691313fd8158d7b77c4e8ffa0e43",
          "blockHash": "0x8669be4ae5e5873da101d1669e02533d82cf736d816b49a4c70c0194aeb07ddd",
          "blockNumber": "0x799d10",
          "transactionHash": "0xeea695e2318da2c19f5475ecaa8f272763c6bb544ee03c8939f662c7c519fb22",
          "transactionIndex": "0x88",
          "logIndex": "0x132",
          "removed": false
        }
      ],
      "logsBloom": "0x00000000000000000000000002400000000000000000001000000000000000000000000000000000000000000000000000000008000000000000000000000000000010000000000000000010000000000000000000000000000000000000000000000000000000000000000000000000000000000000000000000000000000000000000000000000000000000000000000000000000000800000000000000100000000000000000000000000000000000000000000000000000000000000000000000000000000000000000000000000000000000000000040000000000000000000000000000000000000000000000000000000000000000000000000000000",
      "type": "0x2",
      "transactionHash": "0xeea695e2318da2c19f5475ecaa8f272763c6bb544ee03c8939f662c7c519fb22",
      "transactionIndex": "0x88",
      "blockHash": "0x8669be4ae5e5873da101d1669e02533d82cf736d816b49a4c70c0194aeb07ddd",
      "blockNumber": "0x799d10",
      "gasUsed": "0x32787",
      "effectiveGasPrice": "0x52999d",
      "from": "0xb68aa9e398c054da7ebaaa446292f611ca0cd52b",
      "to": "0xdd20862706da5c6eea053976f3a8c49e00f1092b",
      "contractAddress": null
    },
    {
      "status": "0x1",
      "cumulativeGasUsed": "0xb777ff",
      "logs": [
        {
          "address": "0x6a43b35fd749b96868c0db6a0101e87d5ddf764c",
          "topics": [
            "0xb3a8f3e59050d3f97f1bf1b668c8216c654869aa24e3e03cd8891dc68b7db097"
          ],
          "data": "0x0000000000000000000000000000000000000000000000000000000067e124448f390c511e75331a65baeb2d17b4b1af4dbc977650c8ed2774dfa6e0575dc0c8",
          "blockHash": "0x8a03819893dff2337da567057fff096f1af1aee17b25c691ec617cf7ff866538",
          "blockNumber": "0x799d11",
          "transactionHash": "0xd53837517a2de495f93124f72d90afcdd87701e2b36c73c1cde864c739f43093",
          "transactionIndex": "0x69",
          "logIndex": "0xae",
          "removed": false
        }
      ],
      "logsBloom": "0x00000000000000000000000002000000000000000000001000000000000000000000000000000000000000000000000000000000000000000000000000000000000000000000000000000000000000000000000000000000000000000000000000000000000000000000000000000000000000000000000000000000000000000000000000000000000000000000000000000000000000000000000000000000000000000000000000002000000000000000000000000000000000000000020000000000000000000000000000000000000000000000000040000000000000000000000000000000000000000000002000000000000000000000000000000000",
      "type": "0x2",
      "transactionHash": "0xd53837517a2de495f93124f72d90afcdd87701e2b36c73c1cde864c739f43093",
      "transactionIndex": "0x69",
      "blockHash": "0x8a03819893dff2337da567057fff096f1af1aee17b25c691ec617cf7ff866538",
      "blockNumber": "0x799d11",
      "gasUsed": "0xfb81",
      "effectiveGasPrice": "0x5420f5",
      "from": "0xb68aa9e398c054da7ebaaa446292f611ca0cd52b",
      "to": "0x6a43b35fd749b96868c0db6a0101e87d5ddf764c",
      "contractAddress": null
    }
  ],
  "libraries": [],
  "pending": [],
  "returns": {},
  "timestamp": 1742808146,
  "chain": 11155111,
  "commit": "558945a"
}