{
  "transactions": [
    {
      "hash": null,
      "transactionType": "CALL",
      "contractName": null,
      "contractAddress": "0xa6051c6ead0979ba1bd5cdaff73a1ff0a08c019f",
      "function": "requestRandomNumber()",
      "arguments": [],
      "transaction": {
        "from": "0xb68aa9e398c054da7ebaaa446292f611ca0cd52b",
        "to": "0xa6051c6ead0979ba1bd5cdaff73a1ff0a08c019f",
        "value": "0x38dc86edc8630",
        "input": "0x8678a7b2",
        "nonce": "0x161",
        "chainId": "0xaa36a7"
      },
      "additionalContracts": [],
      "isFixedGasLimit": false
    },
    {
      "hash": null,
      "transactionType": "CALL",
      "contractName": null,
      "contractAddress": "0xa87c2de14fc3f91e9e53854f3707b5e86cf7c3f7",
      "function": "submitMerkleRoot(bytes32)",
      "arguments": [
        "0x8f390c511e75331a65baeb2d17b4b1af4dbc977650c8ed2774dfa6e0575dc0c8"
      ],
      "transaction": {
        "from": "0xb68aa9e398c054da7ebaaa446292f611ca0cd52b",
        "to": "0xa87c2de14fc3f91e9e53854f3707b5e86cf7c3f7",
        "value": "0x0",
        "input": "0xcda5de838f390c511e75331a65baeb2d17b4b1af4dbc977650c8ed2774dfa6e0575dc0c8",
        "nonce": "0x162",
        "chainId": "0xaa36a7"
      },
      "additionalContracts": [],
      "isFixedGasLimit": false
    }
  ],
  "receipts": [],
  "libraries": [],
  "pending": [],
  "returns": {},
  "timestamp": 1742878968,
  "chain": 11155111,
  "commit": "73a201e"
}