{
  "transactions": [
    {
      "hash": "0xf0e802c4c1d904b726846a873e5e9bf0b0eeb4a622ae0250409f1a80d1bd3fab",
      "transactionType": "CALL",
      "contractName": null,
      "contractAddress": "0x6b84b6d98c9bec193ac69b5fa0a678cbdecc456a",
      "function": "requestRandomNumber()",
      "arguments": [],
      "transaction": {
        "from": "0xb68aa9e398c054da7ebaaa446292f611ca0cd52b",
        "to": "0x6b84b6d98c9bec193ac69b5fa0a678cbdecc456a",
        "value": "0x38f07f15b7ed3",
        "input": "0x8678a7b2",
        "nonce": "0x17b",
        "chainId": "0xaa36a7"
      },
      "additionalContracts": [],
      "isFixedGasLimit": false
    },
    {
      "hash": "0x156875caee45db1c88c6ac9bb89d9aae72600f95f86563100cd7eb01d3639ae8",
      "transactionType": "CALL",
      "contractName": "CommitReveal2L1",
      "contractAddress": "0x371486842691a4ff43cb0aeb445511e28c71680f",
      "function": "submitMerkleRoot(bytes32)",
      "arguments": [
        "0x8f390c511e75331a65baeb2d17b4b1af4dbc977650c8ed2774dfa6e0575dc0c8"
      ],
      "transaction": {
        "from": "0xb68aa9e398c054da7ebaaa446292f611ca0cd52b",
        "to": "0x371486842691a4ff43cb0aeb445511e28c71680f",
        "value": "0x0",
        "input": "0xcda5de838f390c511e75331a65baeb2d17b4b1af4dbc977650c8ed2774dfa6e0575dc0c8",
        "nonce": "0x17c",
        "chainId": "0xaa36a7"
      },
      "additionalContracts": [],
      "isFixedGasLimit": false
    }
  ],
  "receipts": [
    {
      "status": "0x1",
      "cumulativeGasUsed": "0x96a9d4",
      "logs": [
        {
          "address": "0x371486842691a4ff43cb0aeb445511e28c71680f",
          "topics": [
            "0x31a1adb447f9b6b89f24bf104f0b7a06975ad9f35670dbfaf7ce29190ec54762"
          ],
          "data": "0x0000000000000000000000000000000000000000000000000000000068069a240000000000000000000000000000000000000000000000000000000000000001",
          "blockHash": "0x168ecc0e7b4c5b7aa778a0216becb65e092918cf65c88b70e89c81eef7b61b93",
          "blockNumber": "0x7ca02e",
          "transactionHash": "0xf0e802c4c1d904b726846a873e5e9bf0b0eeb4a622ae0250409f1a80d1bd3fab",
          "transactionIndex": "0x61",
          "logIndex": "0xa4",
          "removed": false
        }
      ],
      "logsBloom": "0x00000000000000000000000000000000000000000000000000000000000000000000000000000000000000000000000000000000000000000000000000000000000000000000000000000000000000000000000000000000000000000000000000000000000000000000000000000000000000000000000000000000000000000000000000000000000000000000000000000008000000000000000800000000000000000000000000000200000200000000000000000000000000000000000000000000000000000000000000000000000000000000000000000000000000000000000000000000000000000000000000000000000000000001000008000000",
      "type": "0x2",
      "transactionHash": "0xf0e802c4c1d904b726846a873e5e9bf0b0eeb4a622ae0250409f1a80d1bd3fab",
      "transactionIndex": "0x61",
      "blockHash": "0x168ecc0e7b4c5b7aa778a0216becb65e092918cf65c88b70e89c81eef7b61b93",
      "blockNumber": "0x7ca02e",
      "gasUsed": "0x336ee",
      "effectiveGasPrice": "0x727489",
      "from": "0xb68aa9e398c054da7ebaaa446292f611ca0cd52b",
      "to": "0x6b84b6d98c9bec193ac69b5fa0a678cbdecc456a",
      "contractAddress": null
    },
    {
      "status": "0x1",
      "cumulativeGasUsed": "0x97ca73",
      "logs": [
        {
          "address": "0x371486842691a4ff43cb0aeb445511e28c71680f",
          "topics": [
            "0xb3a8f3e59050d3f97f1bf1b668c8216c654869aa24e3e03cd8891dc68b7db097"
          ],
          "data": "0x0000000000000000000000000000000000000000000000000000000068069a248f390c511e75331a65baeb2d17b4b1af4dbc977650c8ed2774dfa6e0575dc0c8",
          "blockHash": "0xb77ff3b4fb0286283bfbea015901ecd21b9b4c4a61a9c2ce8068371007cda192",
          "blockNumber": "0x7ca02f",
          "transactionHash": "0x156875caee45db1c88c6ac9bb89d9aae72600f95f86563100cd7eb01d3639ae8",
          "transactionIndex": "0x60",
          "logIndex": "0x96",
          "removed": false
        }
      ],
      "logsBloom": "0x00000000000000000000000000000000000000000000000000000000000000000000000000000000000000000000000000000000000000000000000000000000000000000000000000000000000000000000000000000000000000000000000000000000000000000000000000000000000000000000000000000000000000000000000000000000000000000000000000000000000000000000000800000000000000000000000000002200000200000000000000000000000000000000020000000000000000000000000000000000000000000000000000000000000000000000000000000000000000000000002000000000000000000000000000000000",
      "type": "0x2",
      "transactionHash": "0x156875caee45db1c88c6ac9bb89d9aae72600f95f86563100cd7eb01d3639ae8",
      "transactionIndex": "0x60",
      "blockHash": "0xb77ff3b4fb0286283bfbea015901ecd21b9b4c4a61a9c2ce8068371007cda192",
      "blockNumber": "0x7ca02f",
      "gasUsed": "0x12432",
      "effectiveGasPrice": "0x7190d6",
      "from": "0xb68aa9e398c054da7ebaaa446292f611ca0cd52b",
      "to": "0x371486842691a4ff43cb0aeb445511e28c71680f",
      "contractAddress": null
    }
  ],
  "libraries": [],
  "pending": [],
  "returns": {},
  "timestamp": 1745263153,
  "chain": 11155111,
  "commit": "ca1fb0e"
}