{
  "transactions": [
    {
      "hash": "0xaad1ff04c3fbd0c3316d8131f60d1bc84bd411b6a63ed369fe21f12f014b1d45",
      "transactionType": "CALL",
      "contractName": null,
      "contractAddress": "0x6a43b35fd749b96868c0db6a0101e87d5ddf764c",
      "function": "generateRandomNumber(bytes32[],uint8[],bytes32[],bytes32[],uint256[])",
      "arguments": [
        "[0x290decd9548b62a8d60345a988386fc84ba6bc95484008f6362f93160ef3e563, 0xb10e2d527612073b26eecdfd717e6a320cf44b4afac2b0732d9fcbe2b7fa0cf6]",
        "[27, 28]",
        "[0x16b426ef057737c239a12aef0ed8280f53bc8b8e77dac0ff209286d54ad6346f, 0x0d6c427eb5de58b4bd2c077b01ad43a16d49d47198ddaf5b9fe68ea9776da147]",
        "[0x34b92d5104a68038c34a6cd819d93fc640c577146d8e7f490d8359a433c3b0ad, 0x739a033173509d7db0b3b927d50c01055cc68120cbd8ec30001db69dafdf55af]",
        "[0, 1]"
      ],
      "transaction": {
        "from": "0xb68aa9e398c054da7ebaaa446292f611ca0cd52b",
        "to": "0x6a43b35fd749b96868c0db6a0101e87d5ddf764c",
        "value": "0x0",
        "input": "0x683f2be100000000000000000000000000000000000000000000000000000000000000a00000000000000000000000000000000000000000000000000000000000000100000000000000000000000000000000000000000000000000000000000000016000000000000000000000000000000000000000000000000000000000000001c000000000000000000000000000000000000000000000000000000000000002200000000000000000000000000000000000000000000000000000000000000002290decd9548b62a8d60345a988386fc84ba6bc95484008f6362f93160ef3e563b10e2d527612073b26eecdfd717e6a320cf44b4afac2b0732d9fcbe2b7fa0cf60000000000000000000000000000000000000000000000000000000000000002000000000000000000000000000000000000000000000000000000000000001b000000000000000000000000000000000000000000000000000000000000001c000000000000000000000000000000000000000000000000000000000000000216b426ef057737c239a12aef0ed8280f53bc8b8e77dac0ff209286d54ad6346f0d6c427eb5de58b4bd2c077b01ad43a16d49d47198ddaf5b9fe68ea9776da147000000000000000000000000000000000000000000000000000000000000000234b92d5104a68038c34a6cd819d93fc640c577146d8e7f490d8359a433c3b0ad739a033173509d7db0b3b927d50c01055cc68120cbd8ec30001db69dafdf55af000000000000000000000000000000000000000000000000000000000000000200000000000000000000000000000000000000000000000000000000000000000000000000000000000000000000000000000000000000000000000000000001",
        "nonce": "0x155",
        "chainId": "0xaa36a7"
      },
      "additionalContracts": [],
      "isFixedGasLimit": false
    }
  ],
  "receipts": [
    {
      "status": "0x1",
      "cumulativeGasUsed": "0x98b190",
      "logs": [
        {
          "address": "0x6a43b35fd749b96868c0db6a0101e87d5ddf764c",
          "topics": [
            "0x17e36cf3a793ac6f5c5a4f4902aae8748c5c29bf36f9f66870d1728c40bb562a"
          ],
          "data": "0x0000000000000000000000000000000000000000000000000000000000000002",
          "blockHash": "0xfe72d36fe9247d93aa5a83ef9b8f06bcb356182c3c3347d24a92ad50d3239c1e",
          "blockNumber": "0x7961cc",
          "transactionHash": "0xaad1ff04c3fbd0c3316d8131f60d1bc84bd411b6a63ed369fe21f12f014b1d45",
          "transactionIndex": "0x82",
          "logIndex": "0x84",
          "removed": false
        },
        {
          "address": "0x6a43b35fd749b96868c0db6a0101e87d5ddf764c",
          "topics": [
            "0x539d5cf812477a02d010f73c1704ff94bd28cfca386609a6b494561f64ee7f0a"
          ],
          "data": "0x0000000000000000000000000000000000000000000000000000000000000000891370df4fadf33f50e41f7c8a791e680c0655695ea3404385a909c8f5e13fb40000000000000000000000000000000000000000000000000000000000000001",
          "blockHash": "0xfe72d36fe9247d93aa5a83ef9b8f06bcb356182c3c3347d24a92ad50d3239c1e",
          "blockNumber": "0x7961cc",
          "transactionHash": "0xaad1ff04c3fbd0c3316d8131f60d1bc84bd411b6a63ed369fe21f12f014b1d45",
          "transactionIndex": "0x82",
          "logIndex": "0x85",
          "removed": false
        }
      ],
      "logsBloom": "0x00000000000000000000000002400000000000000000001000004000000000000000000000000000000000000000000000000000000000000000000000000000000000000000000000000010000000000000000000000000000000000000000000000000000001000000000000000000000000000000000000000000000000000000000000000000000000000000000000000000000000000000000000000100000000000000000000000000000000000000000000000000000000000000000000000000000000000000000000000000000000000000000240000000000000000000000000000000000000000000000000000000000000000000000000000000",
      "type": "0x2",
      "transactionHash": "0xaad1ff04c3fbd0c3316d8131f60d1bc84bd411b6a63ed369fe21f12f014b1d45",
      "transactionIndex": "0x82",
      "blockHash": "0xfe72d36fe9247d93aa5a83ef9b8f06bcb356182c3c3347d24a92ad50d3239c1e",
      "blockNumber": "0x7961cc",
      "gasUsed": "0x21b8a",
      "effectiveGasPrice": "0x415725",
      "from": "0xb68aa9e398c054da7ebaaa446292f611ca0cd52b",
      "to": "0x6a43b35fd749b96868c0db6a0101e87d5ddf764c",
      "contractAddress": null
    }
  ],
  "libraries": [],
  "pending": [],
  "returns": {},
  "timestamp": 1742625937,
  "chain": 11155111,
  "commit": "5ea7e16"
}