{
  "transactions": [
    {
      "hash": "0xcfccf2429255eaf6cf3381638069e7876ac5fbcb7206fb591b564cfe0e5b843c",
      "transactionType": "CALL",
      "contractName": null,
      "contractAddress": "0x266dbfe81a009b671ff4e2906ddeda9bc2f0a666",
      "function": "requestRandomNumber()",
      "arguments": [],
      "transaction": {
        "from": "0xb68aa9e398c054da7ebaaa446292f611ca0cd52b",
        "to": "0x266dbfe81a009b671ff4e2906ddeda9bc2f0a666",
        "value": "0x38dd03f1f55e6",
        "input": "0x8678a7b2",
        "nonce": "0x16a",
        "chainId": "0xaa36a7"
      },
      "additionalContracts": [],
      "isFixedGasLimit": false
    },
    {
      "hash": "0x249b7e3e8496d6ec423660ece0be29464e654af7b13c3d4f43bcbbf731035322",
      "transactionType": "CALL",
      "contractName": null,
      "contractAddress": "0xbeebbd0e8ac4535a9d5eab88d845f1082d62fc25",
      "function": "submitMerkleRoot(bytes32)",
      "arguments": [
        "0x8f390c511e75331a65baeb2d17b4b1af4dbc977650c8ed2774dfa6e0575dc0c8"
      ],
      "transaction": {
        "from": "0xb68aa9e398c054da7ebaaa446292f611ca0cd52b",
        "to": "0xbeebbd0e8ac4535a9d5eab88d845f1082d62fc25",
        "value": "0x0",
        "input": "0xcda5de838f390c511e75331a65baeb2d17b4b1af4dbc977650c8ed2774dfa6e0575dc0c8",
        "nonce": "0x16b",
        "chainId": "0xaa36a7"
      },
      "additionalContracts": [],
      "isFixedGasLimit": false
    }
  ],
  "receipts": [
    {
      "status": "0x1",
      "cumulativeGasUsed": "0xbbb13c",
      "logs": [
        {
          "address": "0xbeebbd0e8ac4535a9d5eab88d845f1082d62fc25",
          "topics": [
            "0xe2af5431d45f111f112df909784bcdd0cf9a409671adeaf0964cc234a98297fe"
          ],
          "data": "0x0000000000000000000000000000000000000000000000000000000067e23d300000000000000000000000000000000000000000000000000000000000000001",
          "blockHash": "0xe903276c1c8774c081cd9c468e3fc2120a72688bfe5e1cc1415cf26dd872d52d",
          "blockNumber": "0x79b473",
          "transactionHash": "0xcfccf2429255eaf6cf3381638069e7876ac5fbcb7206fb591b564cfe0e5b843c",
          "transactionIndex": "0x8f",
          "logIndex": "0xf1",
          "removed": false
        }
      ],
      "logsBloom": "0x00000000000000100000000000000000000000000000000000000000000000000000000000000000000000000000000020000000000000000000000000000000000000000000000000000000000000000400000000000000000000000000000000000000000000000000000000000000000000000000000000000000000000000000000000000000000000000000000000000000000000000000000000000000400000000000000000000000000000000000000040000000000000000000000000000000000000000000000000000000000000000000000000000000000000000000000000004000000000000000000000000000000000000000000000000000",
      "type": "0x2",
      "transactionHash": "0xcfccf2429255eaf6cf3381638069e7876ac5fbcb7206fb591b564cfe0e5b843c",
      "transactionIndex": "0x8f",
      "blockHash": "0xe903276c1c8774c081cd9c468e3fc2120a72688bfe5e1cc1415cf26dd872d52d",
      "blockNumber": "0x79b473",
      "gasUsed": "0x30d2a",
      "effectiveGasPrice": "0x3c7685",
      "from": "0xb68aa9e398c054da7ebaaa446292f611ca0cd52b",
      "to": "0x266dbfe81a009b671ff4e2906ddeda9bc2f0a666",
      "contractAddress": null
    },
    {
      "status": "0x1",
      "cumulativeGasUsed": "0xb43a31",
      "logs": [
        {
          "address": "0xbeebbd0e8ac4535a9d5eab88d845f1082d62fc25",
          "topics": [
            "0xb3a8f3e59050d3f97f1bf1b668c8216c654869aa24e3e03cd8891dc68b7db097"
          ],
          "data": "0x0000000000000000000000000000000000000000000000000000000067e23d308f390c511e75331a65baeb2d17b4b1af4dbc977650c8ed2774dfa6e0575dc0c8",
          "blockHash": "0x251e19810b98730292b91d9267a1ffa4c12f0c73a16eae5f687716778953ca16",
          "blockNumber": "0x79b474",
          "transactionHash": "0x249b7e3e8496d6ec423660ece0be29464e654af7b13c3d4f43bcbbf731035322",
          "transactionIndex": "0x6c",
          "logIndex": "0x101",
          "removed": false
        }
      ],
      "logsBloom": "0x00000000000000000000000000000000000000000000000000000000000000000000000000000000000000000000000020000000000000000000000000000000000000000000000000000000000000000400000000000000000000000000000000000000000000000000000000000000000000000000000000000000000000000000000000000000000000000000000000000000000000000000000000000000000000000000000000002000000000000000000000000000000000000000020000000000000000000000000000000000000000000000000000000000000000000000000000004000000000000000002000000000000000000000000000000000",
      "type": "0x2",
      "transactionHash": "0x249b7e3e8496d6ec423660ece0be29464e654af7b13c3d4f43bcbbf731035322",
      "transactionIndex": "0x6c",
      "blockHash": "0x251e19810b98730292b91d9267a1ffa4c12f0c73a16eae5f687716778953ca16",
      "blockNumber": "0x79b474",
      "gasUsed": "0xfb81",
      "effectiveGasPrice": "0x3cfcfb",
      "from": "0xb68aa9e398c054da7ebaaa446292f611ca0cd52b",
      "to": "0xbeebbd0e8ac4535a9d5eab88d845f1082d62fc25",
      "contractAddress": null
    }
  ],
  "libraries": [],
  "pending": [],
  "returns": {},
  "timestamp": 1742880062,
  "chain": 11155111,
  "commit": "73a201e"
}