{
  "transactions": [
    {
      "hash": "0xf2fcc2ec9a96e2115ddc4c574bb1638677ace9fd07c08d7022910c28c6592dcb",
      "transactionType": "CALL",
      "contractName": null,
      "contractAddress": "0xbeebbd0e8ac4535a9d5eab88d845f1082d62fc25",
      "function": "generateRandomNumber(bytes32[],uint8[],bytes32[],bytes32[],uint256[])",
      "arguments": [
        "[0x290decd9548b62a8d60345a988386fc84ba6bc95484008f6362f93160ef3e563, 0xb10e2d527612073b26eecdfd717e6a320cf44b4afac2b0732d9fcbe2b7fa0cf6]",
        "[27, 27]",
        "[0x6ce117183ace94e9dc438da797a0e5b433369a277b5c196da34aa2d23b5e00ae, 0xd1b1f8471a9b6e6187a9a74b8cd1d9d90496f2cc93aa125c683370565e13e3ab]",
        "[0x4bac40da39f48bb4d3479f86a0dd12f5673cf1ab26402475b136aaba730488f8, 0x12a8fe2a0a9adb7dce4537c3179b64524c589900634e64b665fc798dbeba0722]",
        "[0, 1]"
      ],
      "transaction": {
        "from": "0xb68aa9e398c054da7ebaaa446292f611ca0cd52b",
        "to": "0xbeebbd0e8ac4535a9d5eab88d845f1082d62fc25",
        "value": "0x0",
        "input": "0x683f2be100000000000000000000000000000000000000000000000000000000000000a00000000000000000000000000000000000000000000000000000000000000100000000000000000000000000000000000000000000000000000000000000016000000000000000000000000000000000000000000000000000000000000001c000000000000000000000000000000000000000000000000000000000000002200000000000000000000000000000000000000000000000000000000000000002290decd9548b62a8d60345a988386fc84ba6bc95484008f6362f93160ef3e563b10e2d527612073b26eecdfd717e6a320cf44b4afac2b0732d9fcbe2b7fa0cf60000000000000000000000000000000000000000000000000000000000000002000000000000000000000000000000000000000000000000000000000000001b000000000000000000000000000000000000000000000000000000000000001b00000000000000000000000000000000000000000000000000000000000000026ce117183ace94e9dc438da797a0e5b433369a277b5c196da34aa2d23b5e00aed1b1f8471a9b6e6187a9a74b8cd1d9d90496f2cc93aa125c683370565e13e3ab00000000000000000000000000000000000000000000000000000000000000024bac40da39f48bb4d3479f86a0dd12f5673cf1ab26402475b136aaba730488f812a8fe2a0a9adb7dce4537c3179b64524c589900634e64b665fc798dbeba0722000000000000000000000000000000000000000000000000000000000000000200000000000000000000000000000000000000000000000000000000000000000000000000000000000000000000000000000000000000000000000000000001",
        "nonce": "0x169",
        "chainId": "0xaa36a7"
      },
      "additionalContracts": [],
      "isFixedGasLimit": false
    }
  ],
  "receipts": [
    {
      "status": "0x1",
      "cumulativeGasUsed": "0xd5d54e",
      "logs": [
        {
          "address": "0xbeebbd0e8ac4535a9d5eab88d845f1082d62fc25",
          "topics": [
            "0xe2af5431d45f111f112df909784bcdd0cf9a409671adeaf0964cc234a98297fe"
          ],
          "data": "0x0000000000000000000000000000000000000000000000000000000067e23cdc0000000000000000000000000000000000000000000000000000000000000002",
          "blockHash": "0xfb64f6b1c317ce757ab991feb7523d0d112b2b494e9af58f3afc1c0a6582e622",
          "blockNumber": "0x79b46f",
          "transactionHash": "0xf2fcc2ec9a96e2115ddc4c574bb1638677ace9fd07c08d7022910c28c6592dcb",
          "transactionIndex": "0x5f",
          "logIndex": "0xd3",
          "removed": false
        },
        {
          "address": "0xbeebbd0e8ac4535a9d5eab88d845f1082d62fc25",
          "topics": [
            "0x539d5cf812477a02d010f73c1704ff94bd28cfca386609a6b494561f64ee7f0a"
          ],
          "data": "0x0000000000000000000000000000000000000000000000000000000000000000891370df4fadf33f50e41f7c8a791e680c0655695ea3404385a909c8f5e13fb40000000000000000000000000000000000000000000000000000000000000001",
          "blockHash": "0xfb64f6b1c317ce757ab991feb7523d0d112b2b494e9af58f3afc1c0a6582e622",
          "blockNumber": "0x79b46f",
          "transactionHash": "0xf2fcc2ec9a96e2115ddc4c574bb1638677ace9fd07c08d7022910c28c6592dcb",
          "transactionIndex": "0x5f",
          "logIndex": "0xd4",
          "removed": false
        }
      ],
      "logsBloom": "0x00000000000000100000000000000000000000000000000000004000000000000000000000000000000000000000000020000000000000000000000000000000000000000000000000000000000000000400000000000000000000000000000000000000000001000000000000000000000000000000000000000000000000000000000000000000000000000000000000000000000000000000000000000000400000000000000000000000000000000000000040000000000000000000000000000000000000000000000000000000000000000000000200000000000000000000000000004000000000000000000000000000000000000000000000000000",
      "type": "0x2",
      "transactionHash": "0xf2fcc2ec9a96e2115ddc4c574bb1638677ace9fd07c08d7022910c28c6592dcb",
      "transactionIndex": "0x5f",
      "blockHash": "0xfb64f6b1c317ce757ab991feb7523d0d112b2b494e9af58f3afc1c0a6582e622",
      "blockNumber": "0x79b46f",
      "gasUsed": "0x20ea0",
      "effectiveGasPrice": "0x4276ef",
      "from": "0xb68aa9e398c054da7ebaaa446292f611ca0cd52b",
      "to": "0xbeebbd0e8ac4535a9d5eab88d845f1082d62fc25",
      "contractAddress": null
    }
  ],
  "libraries": [],
  "pending": [],
  "returns": {},
  "timestamp": 1742880003,
  "chain": 11155111,
  "commit": "73a201e"
}