{
  "transactions": [
    {
      "hash": "0x8a1d665432ed6be31cee270340dadb5199831ca7bb19c09cbd6c742a22e7d5b4",
      "transactionType": "CALL",
      "contractName": null,
      "contractAddress": "0x266dbfe81a009b671ff4e2906ddeda9bc2f0a666",
      "function": "requestRandomNumber()",
      "arguments": [],
      "transaction": {
        "from": "0xb68aa9e398c054da7ebaaa446292f611ca0cd52b",
        "to": "0x266dbfe81a009b671ff4e2906ddeda9bc2f0a666",
        "value": "0x38dd759fa1cf8",
        "input": "0x8678a7b2",
        "nonce": "0x167",
        "chainId": "0xaa36a7"
      },
      "additionalContracts": [],
      "isFixedGasLimit": false
    },
    {
      "hash": "0xac8552cf780a5351e9d5e4c2813d8ff165c824bc60b79ef75cfb8a9757bc27fc",
      "transactionType": "CALL",
      "contractName": null,
      "contractAddress": "0xbeebbd0e8ac4535a9d5eab88d845f1082d62fc25",
      "function": "submitMerkleRoot(bytes32)",
      "arguments": [
        "0x8f390c511e75331a65baeb2d17b4b1af4dbc977650c8ed2774dfa6e0575dc0c8"
      ],
      "transaction": {
        "from": "0xb68aa9e398c054da7ebaaa446292f611ca0cd52b",
        "to": "0xbeebbd0e8ac4535a9d5eab88d845f1082d62fc25",
        "value": "0x0",
        "input": "0xcda5de838f390c511e75331a65baeb2d17b4b1af4dbc977650c8ed2774dfa6e0575dc0c8",
        "nonce": "0x168",
        "chainId": "0xaa36a7"
      },
      "additionalContracts": [],
      "isFixedGasLimit": false
    }
  ],
  "receipts": [
    {
      "status": "0x1",
      "cumulativeGasUsed": "0xb96c42",
      "logs": [
        {
          "address": "0xbeebbd0e8ac4535a9d5eab88d845f1082d62fc25",
          "topics": [
            "0xe2af5431d45f111f112df909784bcdd0cf9a409671adeaf0964cc234a98297fe"
          ],
          "data": "0x0000000000000000000000000000000000000000000000000000000067e23cdc0000000000000000000000000000000000000000000000000000000000000001",
          "blockHash": "0x8f3ece5951231d4bd2096bdbc5ad4e9a3fd66cd541dad9abd6f64b4edf218cf9",
          "blockNumber": "0x79b46c",
          "transactionHash": "0x8a1d665432ed6be31cee270340dadb5199831ca7bb19c09cbd6c742a22e7d5b4",
          "transactionIndex": "0x7e",
          "logIndex": "0xe3",
          "removed": false
        }
      ],
      "logsBloom": "0x00000000000000100000000000000000000000000000000000000000000000000000000000000000000000000000000020000000000000000000000000000000000000000000000000000000000000000400000000000000000000000000000000000000000000000000000000000000000000000000000000000000000000000000000000000000000000000000000000000000000000000000000000000000400000000000000000000000000000000000000040000000000000000000000000000000000000000000000000000000000000000000000000000000000000000000000000004000000000000000000000000000000000000000000000000000",
      "type": "0x2",
      "transactionHash": "0x8a1d665432ed6be31cee270340dadb5199831ca7bb19c09cbd6c742a22e7d5b4",
      "transactionIndex": "0x7e",
      "blockHash": "0x8f3ece5951231d4bd2096bdbc5ad4e9a3fd66cd541dad9abd6f64b4edf218cf9",
      "blockNumber": "0x79b46c",
      "gasUsed": "0x33a16",
      "effectiveGasPrice": "0x44ae5c",
      "from": "0xb68aa9e398c054da7ebaaa446292f611ca0cd52b",
      "to": "0x266dbfe81a009b671ff4e2906ddeda9bc2f0a666",
      "contractAddress": null
    },
    {
      "status": "0x1",
      "cumulativeGasUsed": "0xe675b0",
      "logs": [
        {
          "address": "0xbeebbd0e8ac4535a9d5eab88d845f1082d62fc25",
          "topics": [
            "0xb3a8f3e59050d3f97f1bf1b668c8216c654869aa24e3e03cd8891dc68b7db097"
          ],
          "data": "0x0000000000000000000000000000000000000000000000000000000067e23cdc8f390c511e75331a65baeb2d17b4b1af4dbc977650c8ed2774dfa6e0575dc0c8",
          "blockHash": "0x270ae8b17373a2ab4ed2aa16bb71131a6580d820ec2aa40f684ae08e73e4517c",
          "blockNumber": "0x79b46d",
          "transactionHash": "0xac8552cf780a5351e9d5e4c2813d8ff165c824bc60b79ef75cfb8a9757bc27fc",
          "transactionIndex": "0x65",
          "logIndex": "0xa4",
          "removed": false
        }
      ],
      "logsBloom": "0x00000000000000000000000000000000000000000000000000000000000000000000000000000000000000000000000020000000000000000000000000000000000000000000000000000000000000000400000000000000000000000000000000000000000000000000000000000000000000000000000000000000000000000000000000000000000000000000000000000000000000000000000000000000000000000000000000002000000000000000000000000000000000000000020000000000000000000000000000000000000000000000000000000000000000000000000000004000000000000000002000000000000000000000000000000000",
      "type": "0x2",
      "transactionHash": "0xac8552cf780a5351e9d5e4c2813d8ff165c824bc60b79ef75cfb8a9757bc27fc",
      "transactionIndex": "0x65",
      "blockHash": "0x270ae8b17373a2ab4ed2aa16bb71131a6580d820ec2aa40f684ae08e73e4517c",
      "blockNumber": "0x79b46d",
      "gasUsed": "0x18c09",
      "effectiveGasPrice": "0x43394e",
      "from": "0xb68aa9e398c054da7ebaaa446292f611ca0cd52b",
      "to": "0xbeebbd0e8ac4535a9d5eab88d845f1082d62fc25",
      "contractAddress": null
    }
  ],
  "libraries": [],
  "pending": [],
  "returns": {},
  "timestamp": 1742879977,
  "chain": 11155111,
  "commit": "73a201e"
}