{
  "transactions": [
    {
      "hash": "0xd0c2650edec8800e6c13eb1a32bd69780377e6f287820675dcb4fdb73332fa02",
      "transactionType": "CALL",
      "contractName": null,
      "contractAddress": "0xdd20862706da5c6eea053976f3a8c49e00f1092b",
      "function": "requestRandomNumber()",
      "arguments": [],
      "transaction": {
        "from": "0xb68aa9e398c054da7ebaaa446292f611ca0cd52b",
        "to": "0xdd20862706da5c6eea053976f3a8c49e00f1092b",
        "value": "0x38dcf33b246d6",
        "input": "0x8678a7b2",
        "nonce": "0x153",
        "chainId": "0xaa36a7"
      },
      "additionalContracts": [],
      "isFixedGasLimit": false
    },
    {
      "hash": "0xb91fe1b76f982349f59970d55047f9f8dea6beb705feda4cd8fe7f9ee6d7db32",
      "transactionType": "CALL",
      "contractName": null,
      "contractAddress": "0x6a43b35fd749b96868c0db6a0101e87d5ddf764c",
      "function": "submitMerkleRoot(bytes32)",
      "arguments": [
        "0x8f390c511e75331a65baeb2d17b4b1af4dbc977650c8ed2774dfa6e0575dc0c8"
      ],
      "transaction": {
        "from": "0xb68aa9e398c054da7ebaaa446292f611ca0cd52b",
        "to": "0x6a43b35fd749b96868c0db6a0101e87d5ddf764c",
        "value": "0x0",
        "input": "0xcda5de838f390c511e75331a65baeb2d17b4b1af4dbc977650c8ed2774dfa6e0575dc0c8",
        "nonce": "0x154",
        "chainId": "0xaa36a7"
      },
      "additionalContracts": [],
      "isFixedGasLimit": false
    },
    {
      "hash": null,
      "transactionType": "CALL",
      "contractName": null,
      "contractAddress": "0x6a43b35fd749b96868c0db6a0101e87d5ddf764c",
      "function": "generateRandomNumber(bytes32[],uint8[],bytes32[],bytes32[],uint256[])",
      "arguments": [
        "[0x290decd9548b62a8d60345a988386fc84ba6bc95484008f6362f93160ef3e563, 0xb10e2d527612073b26eecdfd717e6a320cf44b4afac2b0732d9fcbe2b7fa0cf6]",
        "[27, 27]",
        "[0xda792fa68d3aa1cf3d0be6ea686959d2a2cd6a8ee69af464f9feb5d09b306e03, 0x9c94030ef6cc4a392ecefff6120df9b1f9527bece35319479221822d5c68ceda]",
        "[0x446e0410853e293dc97b2dbaed36f0e4839510cdf031dcb7e99566e235250429, 0x7c9a1a6cc9e2b76d9415702995da57975944e7308e07149b2857a8d61fbe621c]",
        "[0, 1]"
      ],
      "transaction": {
        "from": "0xb68aa9e398c054da7ebaaa446292f611ca0cd52b",
        "to": "0x6a43b35fd749b96868c0db6a0101e87d5ddf764c",
        "value": "0x0",
        "input": "0x683f2be100000000000000000000000000000000000000000000000000000000000000a00000000000000000000000000000000000000000000000000000000000000100000000000000000000000000000000000000000000000000000000000000016000000000000000000000000000000000000000000000000000000000000001c000000000000000000000000000000000000000000000000000000000000002200000000000000000000000000000000000000000000000000000000000000002290decd9548b62a8d60345a988386fc84ba6bc95484008f6362f93160ef3e563b10e2d527612073b26eecdfd717e6a320cf44b4afac2b0732d9fcbe2b7fa0cf60000000000000000000000000000000000000000000000000000000000000002000000000000000000000000000000000000000000000000000000000000001b000000000000000000000000000000000000000000000000000000000000001b0000000000000000000000000000000000000000000000000000000000000002da792fa68d3aa1cf3d0be6ea686959d2a2cd6a8ee69af464f9feb5d09b306e039c94030ef6cc4a392ecefff6120df9b1f9527bece35319479221822d5c68ceda0000000000000000000000000000000000000000000000000000000000000002446e0410853e293dc97b2dbaed36f0e4839510cdf031dcb7e99566e2352504297c9a1a6cc9e2b76d9415702995da57975944e7308e07149b2857a8d61fbe621c000000000000000000000000000000000000000000000000000000000000000200000000000000000000000000000000000000000000000000000000000000000000000000000000000000000000000000000000000000000000000000000001",
        "nonce": "0x155",
        "chainId": "0xaa36a7"
      },
      "additionalContracts": [],
      "isFixedGasLimit": false
    }
  ],
  "receipts": [
    {
      "status": "0x1",
      "cumulativeGasUsed": "0xc4fb9d",
      "logs": [
        {
          "address": "0x6a43b35fd749b96868c0db6a0101e87d5ddf764c",
          "topics": [
            "0x17e36cf3a793ac6f5c5a4f4902aae8748c5c29bf36f9f66870d1728c40bb562a"
          ],
          "data": "0x0000000000000000000000000000000000000000000000000000000000000001",
          "blockHash": "0xa717157e9bc048263793f562e7b2fde245f24b210cd946d23bd13b2657419fa3",
          "blockNumber": "0x7961c4",
          "transactionHash": "0xd0c2650edec8800e6c13eb1a32bd69780377e6f287820675dcb4fdb73332fa02",
          "transactionIndex": "0x8c",
          "logIndex": "0xc9",
          "removed": false
        },
        {
          "address": "0x6a43b35fd749b96868c0db6a0101e87d5ddf764c",
          "topics": [
            "0x2195ca2caa394fd192f7f17a47139d963938464c7ad99010b12ef0218c2f0838"
          ],
          "data": "0x00000000000000000000000000000000000000000000000000000000000000000000000000000000000000000000000000000000000000000000000067de5c3000000000000000000000000000000000000000000000000000000000000000600000000000000000000000000000000000000000000000000000000000000002000000000000000000000000e49c9ea00337182374e112c452247a2d1db617980000000000000000000000009a3ce2fe861e691313fd8158d7b77c4e8ffa0e43",
          "blockHash": "0xa717157e9bc048263793f562e7b2fde245f24b210cd946d23bd13b2657419fa3",
          "blockNumber": "0x7961c4",
          "transactionHash": "0xd0c2650edec8800e6c13eb1a32bd69780377e6f287820675dcb4fdb73332fa02",
          "transactionIndex": "0x8c",
          "logIndex": "0xca",
          "removed": false
        }
      ],
      "logsBloom": "0x00000000000000000000000002400000000000000000001000000000000000000000000000000000000000000000000000000008000000000000000000000000000010000000000000000010000000000000000000000000000000000000000000000000000000000000000000000000000000000000000000000000000000000000000000000000000000000000000000000000000000800000000000000100000000000000000000000000000000000000000000000000000000000000000000000000000000000000000000000000000000000000000040000000000000000000000000000000000000000000000000000000000000000000000000000000",
      "type": "0x2",
      "transactionHash": "0xd0c2650edec8800e6c13eb1a32bd69780377e6f287820675dcb4fdb73332fa02",
      "transactionIndex": "0x8c",
      "blockHash": "0xa717157e9bc048263793f562e7b2fde245f24b210cd946d23bd13b2657419fa3",
      "blockNumber": "0x7961c4",
      "gasUsed": "0x35473",
      "effectiveGasPrice": "0x3c29ec",
      "from": "0xb68aa9e398c054da7ebaaa446292f611ca0cd52b",
      "to": "0xdd20862706da5c6eea053976f3a8c49e00f1092b",
      "contractAddress": null
    },
    {
      "status": "0x1",
      "cumulativeGasUsed": "0xd86ba6",
      "logs": [
        {
          "address": "0x6a43b35fd749b96868c0db6a0101e87d5ddf764c",
          "topics": [
            "0xb3a8f3e59050d3f97f1bf1b668c8216c654869aa24e3e03cd8891dc68b7db097"
          ],
          "data": "0x0000000000000000000000000000000000000000000000000000000067de5c308f390c511e75331a65baeb2d17b4b1af4dbc977650c8ed2774dfa6e0575dc0c8",
          "blockHash": "0x264540328ff7b255a6379001f9b56a887e747e5dc3c86351496c060efa8039b4",
          "blockNumber": "0x7961c5",
          "transactionHash": "0xb91fe1b76f982349f59970d55047f9f8dea6beb705feda4cd8fe7f9ee6d7db32",
          "transactionIndex": "0x7d",
          "logIndex": "0x89",
          "removed": false
        }
      ],
      "logsBloom": "0x00000000000000000000000002000000000000000000001000000000000000000000000000000000000000000000000000000000000000000000000000000000000000000000000000000000000000000000000000000000000000000000000000000000000000000000000000000000000000000000000000000000000000000000000000000000000000000000000000000000000000000000000000000000000000000000000000002000000000000000000000000000000000000000020000000000000000000000000000000000000000000000000040000000000000000000000000000000000000000000002000000000000000000000000000000000",
      "type": "0x2",
      "transactionHash": "0xb91fe1b76f982349f59970d55047f9f8dea6beb705feda4cd8fe7f9ee6d7db32",
      "transactionIndex": "0x7d",
      "blockHash": "0x264540328ff7b255a6379001f9b56a887e747e5dc3c86351496c060efa8039b4",
      "blockNumber": "0x7961c5",
      "gasUsed": "0x18c09",
      "effectiveGasPrice": "0x3b75b1",
      "from": "0xb68aa9e398c054da7ebaaa446292f611ca0cd52b",
      "to": "0x6a43b35fd749b96868c0db6a0101e87d5ddf764c",
      "contractAddress": null
    }
  ],
  "libraries": [],
  "pending": [],
  "returns": {},
  "timestamp": 1742625853,
  "chain": 11155111,
  "commit": "5ea7e16"
}