{
  "transactions": [
    {
      "hash": "0x8090fcf6ad807a99922f3bc0647d73524322fec0de532fb2c2bc0b0f7cabc392",
      "transactionType": "CALL",
      "contractName": null,
      "contractAddress": "0xe49a748054246aa7f8e17a3cce39138d2dac7aab",
      "function": "requestRandomNumber()",
      "arguments": [],
      "transaction": {
        "from": "0xb68aa9e398c054da7ebaaa446292f611ca0cd52b",
        "to": "0xe49a748054246aa7f8e17a3cce39138d2dac7aab",
        "value": "0x38da100900e0c",
        "input": "0x8678a7b2",
        "nonce": "0x176",
        "chainId": "0xaa36a7"
      },
      "additionalContracts": [],
      "isFixedGasLimit": false
    },
    {
      "hash": "0xfbeed92497924a37e58e644749a829e95fb89fd0af302085e5e7a80b11c994b5",
      "transactionType": "CALL",
      "contractName": null,
      "contractAddress": "0x86eafb7a9621dac053990e5c8ffdcf17544531ab",
      "function": "submitMerkleRoot(bytes32)",
      "arguments": [
        "0x8f390c511e75331a65baeb2d17b4b1af4dbc977650c8ed2774dfa6e0575dc0c8"
      ],
      "transaction": {
        "from": "0xb68aa9e398c054da7ebaaa446292f611ca0cd52b",
        "to": "0x86eafb7a9621dac053990e5c8ffdcf17544531ab",
        "value": "0x0",
        "input": "0xcda5de838f390c511e75331a65baeb2d17b4b1af4dbc977650c8ed2774dfa6e0575dc0c8",
        "nonce": "0x177",
        "chainId": "0xaa36a7"
      },
      "additionalContracts": [],
      "isFixedGasLimit": false
    }
  ],
  "receipts": [
    {
      "status": "0x1",
      "cumulativeGasUsed": "0xe58645",
      "logs": [
        {
          "address": "0x86eafb7a9621dac053990e5c8ffdcf17544531ab",
          "topics": [
            "0x31a1adb447f9b6b89f24bf104f0b7a06975ad9f35670dbfaf7ce29190ec54762"
          ],
          "data": "0x00000000000000000000000000000000000000000000000000000000680158e00000000000000000000000000000000000000000000000000000000000000001",
          "blockHash": "0x2106ad38946aaa175f42485d404fa1017c2bab946baea911b17c4453893d0b78",
          "blockNumber": "0x7c3141",
          "transactionHash": "0x8090fcf6ad807a99922f3bc0647d73524322fec0de532fb2c2bc0b0f7cabc392",
          "transactionIndex": "0x66",
          "logIndex": "0x90",
          "removed": false
        }
      ],
      "logsBloom": "0x00000000000000000000000000000000000000000000000000000000000040000000000000000000000000000000000000008000000000000000000000000000000000000000000000000000000000000000000000000000000000000000000000000000000000000000000000000000000000000000000000000000000000000000000000000000000000000000000000000008000000000000000000000000000000000000000000000000000000000000000000000000000000000000000000000000000000000000000000000000000000000000000000000000000000000000000000000000000000000000000000000000000000000001000008002000",
      "type": "0x2",
      "transactionHash": "0x8090fcf6ad807a99922f3bc0647d73524322fec0de532fb2c2bc0b0f7cabc392",
      "transactionIndex": "0x66",
      "blockHash": "0x2106ad38946aaa175f42485d404fa1017c2bab946baea911b17c4453893d0b78",
      "blockNumber": "0x7c3141",
      "gasUsed": "0x336ee",
      "effectiveGasPrice": "0x1a4d5c",
      "from": "0xb68aa9e398c054da7ebaaa446292f611ca0cd52b",
      "to": "0xe49a748054246aa7f8e17a3cce39138d2dac7aab",
      "contractAddress": null
    },
    {
      "status": "0x1",
      "cumulativeGasUsed": "0x7ffbbc",
      "logs": [
        {
          "address": "0x86eafb7a9621dac053990e5c8ffdcf17544531ab",
          "topics": [
            "0xb3a8f3e59050d3f97f1bf1b668c8216c654869aa24e3e03cd8891dc68b7db097"
          ],
          "data": "0x00000000000000000000000000000000000000000000000000000000680158e08f390c511e75331a65baeb2d17b4b1af4dbc977650c8ed2774dfa6e0575dc0c8",
          "blockHash": "0xf71903bb557e6d93db3318ba6239b90a08d0e7907fa64ec1de81787307e26d5c",
          "blockNumber": "0x7c3142",
          "transactionHash": "0xfbeed92497924a37e58e644749a829e95fb89fd0af302085e5e7a80b11c994b5",
          "transactionIndex": "0x56",
          "logIndex": "0x82",
          "removed": false
        }
      ],
      "logsBloom": "0x00000000000000000000000000000000000000000000000000000000000040000000000000000000000000000000000000008000000000000000000000000000000000000000000000000000000000000000000000000000000000000000000000000000000000000000000000000000000000000000000000000000000000000000000000000000000000000000000000000000000000000000000000000000000000000000000000002000000000000000000000000000000000000000020000000000000000000000000000000000000000000000000000000000000000000000000000000000000000000000002000000000000000000000000000002000",
      "type": "0x2",
      "transactionHash": "0xfbeed92497924a37e58e644749a829e95fb89fd0af302085e5e7a80b11c994b5",
      "transactionIndex": "0x56",
      "blockHash": "0xf71903bb557e6d93db3318ba6239b90a08d0e7907fa64ec1de81787307e26d5c",
      "blockNumber": "0x7c3142",
      "gasUsed": "0x12432",
      "effectiveGasPrice": "0x1a31bc",
      "from": "0xb68aa9e398c054da7ebaaa446292f611ca0cd52b",
      "to": "0x86eafb7a9621dac053990e5c8ffdcf17544531ab",
      "contractAddress": null
    }
  ],
  "libraries": [],
  "pending": [],
  "returns": {},
  "timestamp": 1744918764,
  "chain": 11155111,
  "commit": "5bd073c"
}