{
  "transactions": [
    {
      "hash": "0xe89a5ae76ade30575688b0308d9d7ae531f46f80cf5164d994b44892780a2e30",
      "transactionType": "CALL",
      "contractName": "ConsumerExample",
      "contractAddress": "0xdd20862706da5c6eea053976f3a8c49e00f1092b",
      "function": "requestRandomNumber()",
      "arguments": [],
      "transaction": {
        "from": "0xb68aa9e398c054da7ebaaa446292f611ca0cd52b",
        "to": "0xdd20862706da5c6eea053976f3a8c49e00f1092b",
        "value": "0x38de09052c57a",
        "input": "0x8678a7b2",
        "nonce": "0x15b",
        "chainId": "0xaa36a7"
      },
      "additionalContracts": [],
      "isFixedGasLimit": false
    },
    {
      "hash": "0x7d00072725081fdc57c788a51cc2b3c255864c91cd1d20ab668a035295074125",
      "transactionType": "CALL",
      "contractName": "CommitReveal2L1",
      "contractAddress": "0x6a43b35fd749b96868c0db6a0101e87d5ddf764c",
      "function": "submitMerkleRoot(bytes32)",
      "arguments": [
        "0x8f390c511e75331a65baeb2d17b4b1af4dbc977650c8ed2774dfa6e0575dc0c8"
      ],
      "transaction": {
        "from": "0xb68aa9e398c054da7ebaaa446292f611ca0cd52b",
        "to": "0x6a43b35fd749b96868c0db6a0101e87d5ddf764c",
        "value": "0x0",
        "input": "0xcda5de838f390c511e75331a65baeb2d17b4b1af4dbc977650c8ed2774dfa6e0575dc0c8",
        "nonce": "0x15c",
        "chainId": "0xaa36a7"
      },
      "additionalContracts": [],
      "isFixedGasLimit": false
    }
  ],
  "receipts": [
    {
      "status": "0x1",
      "cumulativeGasUsed": "0x14d70ad",
      "logs": [
        {
          "address": "0x6a43b35fd749b96868c0db6a0101e87d5ddf764c",
          "topics": [
            "0x17e36cf3a793ac6f5c5a4f4902aae8748c5c29bf36f9f66870d1728c40bb562a"
          ],
          "data": "0x0000000000000000000000000000000000000000000000000000000000000001",
          "blockHash": "0x2b2aeb3cc8d60192d3de1465856225e0e0c9fe100fac5ae3445c1edc4c6bbcde",
          "blockNumber": "0x799d3e",
          "transactionHash": "0xe89a5ae76ade30575688b0308d9d7ae531f46f80cf5164d994b44892780a2e30",
          "transactionIndex": "0x79",
          "logIndex": "0xcd",
          "removed": false
        },
        {
          "address": "0x6a43b35fd749b96868c0db6a0101e87d5ddf764c",
          "topics": [
            "0x2195ca2caa394fd192f7f17a47139d963938464c7ad99010b12ef0218c2f0838"
          ],
          "data": "0x00000000000000000000000000000000000000000000000000000000000000020000000000000000000000000000000000000000000000000000000067e1266c00000000000000000000000000000000000000000000000000000000000000600000000000000000000000000000000000000000000000000000000000000002000000000000000000000000e49c9ea00337182374e112c452247a2d1db617980000000000000000000000009a3ce2fe861e691313fd8158d7b77c4e8ffa0e43",
          "blockHash": "0x2b2aeb3cc8d60192d3de1465856225e0e0c9fe100fac5ae3445c1edc4c6bbcde",
          "blockNumber": "0x799d3e",
          "transactionHash": "0xe89a5ae76ade30575688b0308d9d7ae531f46f80cf5164d994b44892780a2e30",
          "transactionIndex": "0x79",
          "logIndex": "0xce",
          "removed": false
        }
      ],
      "logsBloom": "0x00000000000000000000000002400000000000000000001000000000000000000000000000000000000000000000000000000008000000000000000000000000000010000000000000000010000000000000000000000000000000000000000000000000000000000000000000000000000000000000000000000000000000000000000000000000000000000000000000000000000000800000000000000100000000000000000000000000000000000000000000000000000000000000000000000000000000000000000000000000000000000000000040000000000000000000000000000000000000000000000000000000000000000000000000000000",
      "type": "0x2",
      "transactionHash": "0xe89a5ae76ade30575688b0308d9d7ae531f46f80cf5164d994b44892780a2e30",
      "transactionIndex": "0x79",
      "blockHash": "0x2b2aeb3cc8d60192d3de1465856225e0e0c9fe100fac5ae3445c1edc4c6bbcde",
      "blockNumber": "0x799d3e",
      "gasUsed": "0x2e4bb",
      "effectiveGasPrice": "0x4e9140",
      "from": "0xb68aa9e398c054da7ebaaa446292f611ca0cd52b",
      "to": "0xdd20862706da5c6eea053976f3a8c49e00f1092b",
      "contractAddress": null
    },
    {
      "status": "0x1",
      "cumulativeGasUsed": "0xccfa4f",
      "logs": [
        {
          "address": "0x6a43b35fd749b96868c0db6a0101e87d5ddf764c",
          "topics": [
            "0xb3a8f3e59050d3f97f1bf1b668c8216c654869aa24e3e03cd8891dc68b7db097"
          ],
          "data": "0x0000000000000000000000000000000000000000000000000000000067e1266c8f390c511e75331a65baeb2d17b4b1af4dbc977650c8ed2774dfa6e0575dc0c8",
          "blockHash": "0x324705f0b5281a2b7dacd1010c599a990ba339bda453c73b1c75c89abf791778",
          "blockNumber": "0x799d3f",
          "transactionHash": "0x7d00072725081fdc57c788a51cc2b3c255864c91cd1d20ab668a035295074125",
          "transactionIndex": "0x82",
          "logIndex": "0x9e",
          "removed": false
        }
      ],
      "logsBloom": "0x00000000000000000000000002000000000000000000001000000000000000000000000000000000000000000000000000000000000000000000000000000000000000000000000000000000000000000000000000000000000000000000000000000000000000000000000000000000000000000000000000000000000000000000000000000000000000000000000000000000000000000000000000000000000000000000000000002000000000000000000000000000000000000000020000000000000000000000000000000000000000000000000040000000000000000000000000000000000000000000002000000000000000000000000000000000",
      "type": "0x2",
      "transactionHash": "0x7d00072725081fdc57c788a51cc2b3c255864c91cd1d20ab668a035295074125",
      "transactionIndex": "0x82",
      "blockHash": "0x324705f0b5281a2b7dacd1010c599a990ba339bda453c73b1c75c89abf791778",
      "blockNumber": "0x799d3f",
      "gasUsed": "0xfb81",
      "effectiveGasPrice": "0x50cb1b",
      "from": "0xb68aa9e398c054da7ebaaa446292f611ca0cd52b",
      "to": "0x6a43b35fd749b96868c0db6a0101e87d5ddf764c",
      "contractAddress": null
    }
  ],
  "libraries": [],
  "pending": [],
  "returns": {},
  "timestamp": 1742808696,
  "chain": 11155111,
  "commit": "558945a"
}