{
  "transactions": [
    {
      "hash": "0x6df4c66840199a045570ca9f781446c31a7eb325ec5282061ecbbb68ca142c3b",
      "transactionType": "CALL",
      "contractName": null,
      "contractAddress": "0x81413655fdc1b50fc2205fd4432bc147d00b9e5c",
      "function": "requestRandomNumber()",
      "arguments": [],
      "transaction": {
        "from": "0xb68aa9e398c054da7ebaaa446292f611ca0cd52b",
        "to": "0x81413655fdc1b50fc2205fd4432bc147d00b9e5c",
        "value": "0x38db713ded0cb",
        "input": "0x8678a7b2",
        "nonce": "0x8f",
        "chainId": "0x19f8f6fef2"
      },
      "additionalContracts": [],
      "isFixedGasLimit": false
    },
    {
      "hash": "0xfb3396eeb6c8c08dcbfd40c0ec75896f47ba8232f4be861b36f15cccb5b7f9c4",
      "transactionType": "CALL",
      "contractName": null,
      "contractAddress": "0x474038fa10bcbf4d12889a673932268c23fbf4ad",
      "function": "submitMerkleRoot(bytes32)",
      "arguments": [
        "0x8f390c511e75331a65baeb2d17b4b1af4dbc977650c8ed2774dfa6e0575dc0c8"
      ],
      "transaction": {
        "from": "0xb68aa9e398c054da7ebaaa446292f611ca0cd52b",
        "to": "0x474038fa10bcbf4d12889a673932268c23fbf4ad",
        "value": "0x0",
        "input": "0xcda5de838f390c511e75331a65baeb2d17b4b1af4dbc977650c8ed2774dfa6e0575dc0c8",
        "nonce": "0x90",
        "chainId": "0x19f8f6fef2"
      },
      "additionalContracts": [],
      "isFixedGasLimit": false
    }
  ],
  "receipts": [
    {
      "status": "0x1",
      "cumulativeGasUsed": "0x4b4fa",
      "logs": [
        {
          "address": "0x474038fa10bcbf4d12889a673932268c23fbf4ad",
          "topics": [
            "0x31a1adb447f9b6b89f24bf104f0b7a06975ad9f35670dbfaf7ce29190ec54762"
          ],
          "data": "0x0000000000000000000000000000000000000000000000000000000068073cba0000000000000000000000000000000000000000000000000000000000000001",
          "blockHash": "0x08eb5b338b84abca148193dd0a557c5190ab10db894bf8e21a6d533e9227985e",
          "blockNumber": "0x1fb0cf",
          "transactionHash": "0x6df4c66840199a045570ca9f781446c31a7eb325ec5282061ecbbb68ca142c3b",
          "transactionIndex": "0x1",
          "logIndex": "0x0",
          "removed": false
        }
      ],
      "logsBloom": "0x00000000000000000000000000000000000000000000000000000000000000000000000000000200000000000000000000000000000000000080000000000000000000000000000000000000000000000000000000000000000000000000000000000000000000000000000000000000000000000000000000000000000000000000000000000000000000000000000000000008000000000000000000000000000000000000000000000000000000000000000000000000000000000000000000000000000000000000000000000000000000000000000000000000000000000000000000000000008000000000000000000000000000000001000008000000",
      "type": "0x2",
      "transactionHash": "0x6df4c66840199a045570ca9f781446c31a7eb325ec5282061ecbbb68ca142c3b",
      "transactionIndex": "0x1",
      "blockHash": "0x08eb5b338b84abca148193dd0a557c5190ab10db894bf8e21a6d533e9227985e",
      "blockNumber": "0x1fb0cf",
      "gasUsed": "0x3e8e8",
      "effectiveGasPrice": "0xfd",
      "from": "0xb68aa9e398c054da7ebaaa446292f611ca0cd52b",
      "to": "0x81413655fdc1b50fc2205fd4432bc147d00b9e5c",
      "contractAddress": null,
      "l1BaseFeeScalar": "0x558",
      "l1BlobBaseFee": "0x1",
      "l1BlobBaseFeeScalar": "0xc5fc5",
      "l1Fee": "0x123611c3f",
      "l1GasPrice": "0x851f743f",
      "l1GasUsed": "0x640"
    },
    {
      "status": "0x1",
      "cumulativeGasUsed": "0x181c4",
      "logs": [
        {
          "address": "0x474038fa10bcbf4d12889a673932268c23fbf4ad",
          "topics": [
            "0xb3a8f3e59050d3f97f1bf1b668c8216c654869aa24e3e03cd8891dc68b7db097"
          ],
          "data": "0x0000000000000000000000000000000000000000000000000000000068073cba8f390c511e75331a65baeb2d17b4b1af4dbc977650c8ed2774dfa6e0575dc0c8",
          "blockHash": "0xfb93aba1ba22f9b9e9a6dd0944c076ee23b90515142eb061649d606de91432f5",
          "blockNumber": "0x1fb0d0",
          "transactionHash": "0xfb3396eeb6c8c08dcbfd40c0ec75896f47ba8232f4be861b36f15cccb5b7f9c4",
          "transactionIndex": "0x1",
          "logIndex": "0x0",
          "removed": false
        }
      ],
      "logsBloom": "0x00000000000000000000000000000000000000000000000000000000000000000000000000000200000000000000000000000000000000000080000000000000000000000000000000000000000000000000000000000000000000000000000000000000000000000000000000000000000000000000000000000000000000000000000000000000000000000000000000000000000000000000000000000000000000000000000000002000000000000000000000000000000000000000020000000000000000000000000000000000000000000000000000000000000000000000000000000000008000000000002000000000000000000000000000000000",
      "type": "0x2",
      "transactionHash": "0xfb3396eeb6c8c08dcbfd40c0ec75896f47ba8232f4be861b36f15cccb5b7f9c4",
      "transactionIndex": "0x1",
      "blockHash": "0xfb93aba1ba22f9b9e9a6dd0944c076ee23b90515142eb061649d606de91432f5",
      "blockNumber": "0x1fb0d0",
      "gasUsed": "0xd676",
      "effectiveGasPrice": "0xfd",
      "from": "0xb68aa9e398c054da7ebaaa446292f611ca0cd52b",
      "to": "0x474038fa10bcbf4d12889a673932268c23fbf4ad",
      "contractAddress": null,
      "l1BaseFeeScalar": "0x558",
      "l1BlobBaseFee": "0x1",
      "l1BlobBaseFeeScalar": "0xc5fc5",
      "l1Fee": "0x123611c3f",
      "l1GasPrice": "0x851f743f",
      "l1GasUsed": "0x640"
    }
  ],
  "libraries": [],
  "pending": [],
  "returns": {},
  "timestamp": 1745304769,
  "chain": 111551119090,
  "commit": "7444c8e"
}