{
  "transactions": [
    {
      "hash": "0xf8b2a9b45a104a0bfa4561be095fb9a1b2c00b21effb6c2bfa831978fcaa7764",
      "transactionType": "CALL",
      "contractName": null,
      "contractAddress": "0x474038fa10bcbf4d12889a673932268c23fbf4ad",
      "function": "generateRandomNumber((bytes32,(bytes32,bytes32))[],uint256,uint256)",
      "arguments": [
        "[(0x290decd9548b62a8d60345a988386fc84ba6bc95484008f6362f93160ef3e563, (0xa2ed1bd837d2bb33736b88e6928e7a7a68cbec5240039a940506b01f02cae432, 0x7f68330937c8ff1f511d708bba06b2eb4e5ed713a4e738859d5034d00840e509)), (0xb10e2d527612073b26eecdfd717e6a320cf44b4afac2b0732d9fcbe2b7fa0cf6, (0x453ffc5179d0f335dc34b13de6515b73efacfa0db6f995ab90b5ec40341c8b3b, 0x0d392962b40b9bc02d2179c0d8d7aab94e8eed92eb56d47185eb86ba8b1fedfb))]",
        "6939",
        "256"
      ],
      "transaction": {
        "from": "0xb68aa9e398c054da7ebaaa446292f611ca0cd52b",
        "to": "0x474038fa10bcbf4d12889a673932268c23fbf4ad",
        "value": "0x0",
        "input": "0xa89b873e00000000000000000000000000000000000000000000000000000000000000600000000000000000000000000000000000000000000000000000000000001b1b00000000000000000000000000000000000000000000000000000000000001000000000000000000000000000000000000000000000000000000000000000002290decd9548b62a8d60345a988386fc84ba6bc95484008f6362f93160ef3e563a2ed1bd837d2bb33736b88e6928e7a7a68cbec5240039a940506b01f02cae4327f68330937c8ff1f511d708bba06b2eb4e5ed713a4e738859d5034d00840e509b10e2d527612073b26eecdfd717e6a320cf44b4afac2b0732d9fcbe2b7fa0cf6453ffc5179d0f335dc34b13de6515b73efacfa0db6f995ab90b5ec40341c8b3b0d392962b40b9bc02d2179c0d8d7aab94e8eed92eb56d47185eb86ba8b1fedfb",
        "nonce": "0x91",
        "chainId": "0x19f8f6fef2"
      },
      "additionalContracts": [],
      "isFixedGasLimit": false
    }
  ],
  "receipts": [
    {
      "status": "0x1",
      "cumulativeGasUsed": "0x313ee",
      "logs": [
        {
          "address": "0x474038fa10bcbf4d12889a673932268c23fbf4ad",
          "topics": [
            "0x31a1adb447f9b6b89f24bf104f0b7a06975ad9f35670dbfaf7ce29190ec54762"
          ],
          "data": "0x0000000000000000000000000000000000000000000000000000000068073cba0000000000000000000000000000000000000000000000000000000000000002",
          "blockHash": "0xcf913c30e6b7643e754b15e910eab89cc2111baaa126d9fbcd0f49ec8df8e67f",
          "blockNumber": "0x1fb0d1",
          "transactionHash": "0xf8b2a9b45a104a0bfa4561be095fb9a1b2c00b21effb6c2bfa831978fcaa7764",
          "transactionIndex": "0x1",
          "logIndex": "0x0",
          "removed": false
        },
        {
          "address": "0x474038fa10bcbf4d12889a673932268c23fbf4ad",
          "topics": [
            "0x539d5cf812477a02d010f73c1704ff94bd28cfca386609a6b494561f64ee7f0a"
          ],
          "data": "0x0000000000000000000000000000000000000000000000000000000000000001891370df4fadf33f50e41f7c8a791e680c0655695ea3404385a909c8f5e13fb40000000000000000000000000000000000000000000000000000000000000001",
          "blockHash": "0xcf913c30e6b7643e754b15e910eab89cc2111baaa126d9fbcd0f49ec8df8e67f",
          "blockNumber": "0x1fb0d1",
          "transactionHash": "0xf8b2a9b45a104a0bfa4561be095fb9a1b2c00b21effb6c2bfa831978fcaa7764",
          "transactionIndex": "0x1",
          "logIndex": "0x1",
          "removed": false
        }
      ],
      "logsBloom": "0x00000000000000000000000000000000000000000000000000004000000000000000000000000200000000000000000000000000000000000080000000000000000000000000000000000000000000000000000000000000000000000000000000000000000001000000000000000000000000000000000000000000000000000000000000000000000000000000000000000008000000000000000000000000000000000000000000000000000000000000000000000000000000000000000000000000000000000000000000000000000000000000000200000000000000000000000000000000008000000000000000000000000000000001000008000000",
      "type": "0x2",
      "transactionHash": "0xf8b2a9b45a104a0bfa4561be095fb9a1b2c00b21effb6c2bfa831978fcaa7764",
      "transactionIndex": "0x1",
      "blockHash": "0xcf913c30e6b7643e754b15e910eab89cc2111baaa126d9fbcd0f49ec8df8e67f",
      "blockNumber": "0x1fb0d1",
      "gasUsed": "0x247dc",
      "effectiveGasPrice": "0xfd",
      "from": "0xb68aa9e398c054da7ebaaa446292f611ca0cd52b",
      "to": "0x474038fa10bcbf4d12889a673932268c23fbf4ad",
      "contractAddress": null,
      "l1BaseFeeScalar": "0x558",
      "l1BlobBaseFee": "0x1",
      "l1BlobBaseFeeScalar": "0xc5fc5",
      "l1Fee": "0x2dd9f9b69",
      "l1GasPrice": "0x892d7b52",
      "l1GasUsed": "0xf45"
    }
  ],
  "libraries": [],
  "pending": [],
  "returns": {},
  "timestamp": 1745304775,
  "chain": 111551119090,
  "commit": "7444c8e"
}