{
  "transactions": [
    {
      "hash": null,
      "transactionType": "CALL",
      "contractName": null,
      "contractAddress": "0x5f84741ec9f39c601a89c0ae0c84602164156f90",
      "function": "requestRandomNumber()",
      "arguments": [],
      "transaction": {
        "from": "0xb68aa9e398c054da7ebaaa446292f611ca0cd52b",
        "to": "0x5f84741ec9f39c601a89c0ae0c84602164156f90",
        "value": "0x38db1c0d2fb53",
        "input": "0x8678a7b2",
        "nonce": "0x90",
        "chainId": "0x19f8f6fef2"
      },
      "additionalContracts": [],
      "isFixedGasLimit": false
    },
    {
      "hash": null,
      "transactionType": "CALL",
      "contractName": null,
      "contractAddress": "0x7a95c9fbec9fa5b67cfdbe0821537cc3154a987d",
      "function": "submitMerkleRoot(bytes32)",
      "arguments": [
        "0x8f390c511e75331a65baeb2d17b4b1af4dbc977650c8ed2774dfa6e0575dc0c8"
      ],
      "transaction": {
        "from": "0xb68aa9e398c054da7ebaaa446292f611ca0cd52b",
        "to": "0x7a95c9fbec9fa5b67cfdbe0821537cc3154a987d",
        "value": "0x0",
        "input": "0xcda5de838f390c511e75331a65baeb2d17b4b1af4dbc977650c8ed2774dfa6e0575dc0c8",
        "nonce": "0x91",
        "chainId": "0x19f8f6fef2"
      },
      "additionalContracts": [],
      "isFixedGasLimit": false
    }
  ],
  "receipts": [],
  "libraries": [],
  "pending": [],
  "returns": {},
  "timestamp": 1745263024,
  "chain": 111551119090,
  "commit": "ca1fb0e"
}