{
  "transactions": [
    {
      "hash": null,
      "transactionType": "CALL",
      "contractName": null,
      "contractAddress": "0xacde3d27c9b0ec8fd3266f354fd5a8a40196aec4",
      "function": "requestRandomNumber()",
      "arguments": [],
      "transaction": {
        "from": "0xb68aa9e398c054da7ebaaa446292f611ca0cd52b",
        "to": "0xacde3d27c9b0ec8fd3266f354fd5a8a40196aec4",
        "value": "0x38db1bf275218",
        "input": "0x8678a7b2",
        "nonce": "0x92",
        "chainId": "0x19f8f6fef2"
      },
      "additionalContracts": [],
      "isFixedGasLimit": false
    },
    {
      "hash": null,
      "transactionType": "CALL",
      "contractName": null,
      "contractAddress": "0x59c282fde2d304242febbf2617cf0365ced03eb1",
      "function": "submitMerkleRoot(bytes32)",
      "arguments": [
        "0x8f390c511e75331a65baeb2d17b4b1af4dbc977650c8ed2774dfa6e0575dc0c8"
      ],
      "transaction": {
        "from": "0xb68aa9e398c054da7ebaaa446292f611ca0cd52b",
        "to": "0x59c282fde2d304242febbf2617cf0365ced03eb1",
        "value": "0x0",
        "input": "0xcda5de838f390c511e75331a65baeb2d17b4b1af4dbc977650c8ed2774dfa6e0575dc0c8",
        "nonce": "0x93",
        "chainId": "0x19f8f6fef2"
      },
      "additionalContracts": [],
      "isFixedGasLimit": false
    }
  ],
  "receipts": [],
  "libraries": [],
  "pending": [],
  "returns": {},
  "timestamp": 1745263386,
  "chain": 111551119090,
  "commit": "ca1fb0e"
}